:100000000C948B000C94AA000C94AA000C94AA00E7
:100010000C94AA000C94AA000C94AA000C94AA00B8
:100020000C94AA000C94AA000C94AA000C94AA00A8
:100030000C94AA000C94E8000C94AA000C94AA005A
:100040000C94AA000C94AA000C94AA000C94AA0088
:100050000C94AA000C94AA000C94AA000C94AA0078
:100060000C94AA000C94AA000C94AA000C94AA0068
:100070000C94AA000C94AA000C94AA000C94AA0058
:100080000C94AA000C94AA000C94AA002F026102FE
:100090006102610261026102610261026102610248
:1000A0006102610261026102610261026102610238
:1000B0006102610261026102610261026102610228
:1000C0006102610261026102610261026102610218
:1000D00061025E026102610261026102610261020B
:1000E0005902610261026102610261025C02320234
:1000F000350238023B023E024102440247024A02F4
:1001000061026102610261026102610261024D02EB
:1001100050025302560211241FBECFEFD0E4DEBFBF
:10012000CDBF11E0A0E0B1E0E2E7F7E000E00BBFF7
:1001300002C007900D92A231B107D9F721E0A2E1E8
:10014000B1E001C01D92A532B207E1F70E9494020E
:100150000C94B7030C940000CF93C82F8A3019F485
:100160008DE00E94AC008091C00085FFFCCFC09361
:10017000C60080E090E0CF9108958BE080938100ED
:100180008DE790E0909389008093880082E08093CF
:100190006F00109285001092840080910E01909162
:1001A0000F01A0911001B091110180931201909361
:1001B0001301A0931401B09315018FB780688FBF0E
:1001C000089510928100089581E0809316010895AA
:1001D0001F920F920FB60F9211240BB60F922F930E
:1001E0003F934F935F936F937F938F939F93AF93BF
:1001F000BF93EF93FF938091120190911301A0910F
:100200001401B09115010197A109B1098093120160
:1002100090931301A0931401B0931501892B8A2B9D
:100220008B2B91F40E94E40080910E0190910F01BC
:10023000A0911001B09111018093120190931301CC
:10024000A0931401B0931501FF91EF91BF91AF916D
:100250009F918F917F916F915F914F913F912F91DE
:100260000F900BBE0F900FBE0F901F9018956093CC
:100270000E0170930F018093100190931101609310
:100280001201709313018093140190931501089546
:10029000442349F021E030E002C0220F331F6A9569
:1002A000E2F7822B089521E030E002C0220F331FD5
:1002B0006A95E2F720958223089521E030E002C09C
:1002C000220F331F6A95E2F78223089540E064E02D
:1002D0008FEF0E94480182B9000080B160E08095F4
:1002E0000E945D01811180C080B161E080950E9413
:1002F0005D0181117BC080B162E080950E945D014B
:10030000811176C080B163E080950E945D0181110A
:1003100071C040E065E08FEF0E94480182B90000A3
:1003200080B160E080950E945D01811165C080B15F
:1003300061E080950E945D01811160C080B162E042
:1003400080950E945D0181115BC080B163E0809562
:100350000E945D01811156C040E066E08FEF0E946F
:10036000480182B9000080B160E080950E945D0183
:1003700081114AC080B161E080950E945D018111C8
:1003800045C080B162E080950E945D01811140C04E
:1003900080B163E080950E945D0181113BC040E027
:1003A00067E08FEF0E94480182B9000080B160E0F1
:1003B00080950E945D0181112FC080B161E0809520
:1003C0000E945D0181112AC080B162E080950E9487
:1003D0005D01811125C080B163E080950E945D01BF
:1003E0008823F9F084E4089581E3089584E308956F
:1003F00087E308958AE2089582E3089585E30895E6
:1004000088E3089580E3089583E3089586E30895DB
:1004100089E3089583E2089581E4089582E40895CC
:1004200083E40895CF93DF93EC01009729F00197BF
:1004300029F0C0E0D0E002C0C1E0D0E0C130D10579
:1004400009F041C00E9466018093240190E0853448
:100450009105B8F5FC01EA5BFF4F0C94AE038FE108
:1004600085B931C081E085B92EC082E085B92BC045
:1004700083E085B928C084E085B925C085E085B9C9
:1004800022C086E085B91FC087E085B91CC088E01E
:1004900085B919C089E085B916C08AE085B913C04D
:1004A0008BE085B910C08CE085B90DC08DE085B9B1
:1004B0000AC08EE085B907C015B805C08FE085B9C0
:1004C00002C08BE185B9CE01DF91CF9108950F93E2
:1004D0001F93CF93DF93B62FA72FF82FE92F022F6B
:1004E000132FD42FC52F04C0062F172FD82FC92F95
:1004F0006B2F7A2F8F2F9E2F202F312F4D2F5C2F78
:100500000E948C03B02FA12FFD2FEC2F61157105D8
:100510008105910549F7602F712F8D2F9C2FDF9159
:10052000CF911F910F910895CF93DF9300D0CDB756
:10053000DEB78FEF84B915B880EF81B98FE082B94B
:1005400022E330E040E050E061E070E080E090E0E5
:100550000E9467026B017C0162E370E080E090E042
:10056000A70196010E948C03E7E1F1E0FA83E98399
:1005700010822183328343835483258336834783C8
:10058000508782E192E092878187C701B6010E947D
:1005900037010E94BD0000E010E03BC0F801EE0F03
:1005A000FF1F81E090E08C0F9D1FE80FF91FE08096
:1005B000F180D70115964D915D916D917C911897C1
:1005C00011968D919D910D90BC91A02D48175907C2
:1005D0006A077B0781F4D7011996ED91FC911A9770
:1005E0008C91082E000C990B0995F70180831582D8
:1005F000168217821086F70185819681A781B085C2
:100600000196A11DB11D85839683A783B0870F5FD7
:100610001F4F0115110511F2809116018823E1F396
:1006200010921601B8CF40E050E00CC000002F5FE0
:100630003F4F02C020E030E0273063E03607B4F3DC
:100640004F5F5F4F48175907ACF308959BB19F7BED
:100650009BB988B98BB180688BB900008BB18F775B
:100660008BB982E090E00E941303089581E00E941C
:1006700026030895813120F481580E9426030895AD
:1006800081550E942603089584E690E00E9413039A
:1006900088E30E94260386E00E9426038FE00E94E2
:1006A000260381E00E9426038AE090E00E94130363
:1006B00008959BB190649BB988B98BB180688BB960
:1006C00000008BB18F778BB981E090E00E9413031B
:1006D0000895EF92FF920F931F93CF93DF93182FFC
:1006E000EB010E9436030EC001E0010F812F0E9432
:1006F0003A037E018FEFE81AF80A88810E945903B5
:10070000102FE70188818111EFCFDF91CF911F91E9
:100710000F91FF90EF900895A1E21A2EAA1BBB1B28
:10072000FD010DC0AA1FBB1FEE1FFF1FA217B307BD
:10073000E407F50720F0A21BB30BE40BF50B661FD3
:10074000771F881F991F1A9469F760957095809597
:1007500090959B01AC01BD01CF010895EE0FFF1FE5
:100760000024001C0BBE0790F691E02D0994F8942C
:02077000FFCFB9
:100772000000000200000000AC00000000000100C8
:02078200000075
:00000001FF
