:100000000C9446000C9465000C9465000C946500FB
:100010000C9465000C9465000C9465000C946500CC
:100020000C9465000C9465000C9465000C946500BC
:100030000C9465000C9465000C9465000C946500AC
:100040000C9465000C9465000C9465000C9465009C
:100050000C9465000C9465000C9465000C9465008C
:100060000C9465000C9465000C9465000C9465007C
:100070000C9465000C9465000C9465000C9465006C
:100080000C9465000C9465000C94650011241FBE4F
:10009000CFEFD0E4DEBFCDBF11E0A0E0B1E0E2E4FD
:1000A000F2E000E00BBF02C007900D92AE31B10745
:1000B000D9F721E0AEE1B1E001C01D92A332B20751
:1000C000E1F70E940A010C941F010C940000CF93E9
:1000D000C82F8A3019F48DE00E9467008091C0001B
:1000E00085FFFCCFC093C60080E090E0CF910895DB
:1000F000809121019091220182309105B1F128F483
:10010000009749F0019771F054C083309105A1F137
:100110000497C9F14EC081E090E090932201809352
:1001200021014BC080912001982F917080FF0BC05E
:1001300080910E01873038F483E090E090932201A3
:10014000809321013AC0992339F082E090E09093A6
:1001500022018093210131C091112FC081E090E0F4
:10016000909322018093210128C084E090E0909335
:1001700022018093210121C084E090E0909322012C
:10018000809321011AC080912001982F917080FFE7
:1001900007C084E090E090932201809321010DC07C
:1001A00091110BC081E090E0909322018093210196
:1001B00004C010922201109221018091210190919E
:1001C00022018230910519F00397B9F008958091CA
:1001D0001E01E82FF0E0E95FFE4F908190931F0130
:1001E0008F5F80931E018730A0F010921E018091D6
:1001F0000E01815080930E01089580910E01E82F29
:10020000F0E0E050FF4F908190931F018150809368
:100210000E01089511B88FEF82B984B915B8109204
:1002200022011092210190B181E089278170809391
:1002300020010E94780080911F0185B9F4CFF894C5
:02024000FFCFEE
:10024200003F3D35151410020A2A2B2F3F000700EC
:0E025200000002000000006700000000000035
:00000001FF
