:100000000C9446000C9465000C9465000C946500FB
:100010000C9465000C9465000C9465000C946500CC
:100020000C9465000C9465000C9465000C946500BC
:100030000C9465000C94A3000C9465000C9465006E
:100040000C9465000C9465000C9465000C9465009C
:100050000C9465000C9465000C9465000C9465008C
:100060000C9465000C9465000C9465000C9465007C
:100070000C9465000C9465000C9465000C9465006C
:100080000C9465000C9465000C94650011241FBE4F
:10009000CFEFD0E4DEBFCDBF11E0A0E0B1E0E6E4F9
:1000A000F6E000E00BBF02C007900D92A431B1074B
:1000B000D9F721E0A4E1B1E001C01D92A932B20755
:1000C000E1F70E94C1020C9421030C940000CF932D
:1000D000C82F8A3019F48DE00E9467008091C0001B
:1000E00085FFFCCFC093C60080E090E0CF910895DB
:1000F0008BE0809381008DE790E09093890080935E
:10010000880082E080936F00109285001092840036
:100110008091020190910301A0910401B091050129
:100120008093170190931801A0931901B0931A01BD
:100130008FB780688FBF089510928100089581E085
:1001400080931B0108951F920F920FB60F921124F6
:100150000BB60F922F933F934F935F936F937F93C1
:100160008F939F93AF93BF93EF93FF93809117016A
:1001700090911801A0911901B0911A010197A1095C
:10018000B1098093170190931801A0931901B093BE
:100190001A01892B8A2B8B2B91F40E949F0080914E
:1001A000020190910301A0910401B0910501809397
:1001B000170190931801A0931901B0931A01FF91B0
:1001C000EF91BF91AF919F918F917F916F915F91CF
:1001D0004F913F912F910F900BBE0F900FBE0F903C
:1001E0001F9018956093020170930301809304019E
:1001F0009093050160931701709318018093190182
:1002000090931A01089580911E0190911F018130F1
:10021000910571F030F08230910589F00397B1F0CB
:100220001CC081E090E090931F0180931E0119C0D3
:1002300082E090E090931F0180931E0112C083E042
:1002400090E090931F0180931E010BC081E090E02D
:1002500090931F0180931E0104C010921F01109201
:100260001E0180911E0190911F018230910549F07D
:100270008330910551F0019759F481E0809320017A
:10028000089582E080932001089584E08093200106
:10029000089580912101909122018130910559F0BA
:1002A00018F0029779F015C081E090E09093220158
:1002B0008093210112C082E090E09093220180930C
:1002C00021010BC081E090E09093220180932101F5
:1002D00004C010922201109221018091210190917D
:1002E00022018130910519F0029729F0089588E0E4
:1002F0008093230108951092230108958091250190
:10030000909126018130910581F040F08230910575
:1003100009F44AC0039709F457C066C081E090E031
:100320009093260180932501089500991AC082E0D8
:1003300090E0909326018093250180910001909197
:10034000010101968630910528F490930101809374
:100350000001089585E090E09093010180930001F1
:10036000089501991AC083E090E09093260180934C
:10037000250180910001909101018130910531F0BA
:1003800001979093010180930001089581E090E02E
:100390009093010180930001089581E090E0909393
:1003A0002601809325010895009907C082E090E01E
:1003B0009093260180932501089581E090E0909329
:1003C0002601809325010895019907C083E090E0FC
:1003D0009093260180932501089581E090E0909309
:1003E0002601809325010895109222011092210187
:1003F000089580912701909128018130910579F02D
:1004000038F082309105D9F0039709F440C067C0F5
:1004100081E090E0909328018093270164C00299C5
:1004200007C082E090E090932801809327015BC091
:1004300081E090E0909328018093270154C020919F
:10044000150130911601809100019091010128174A
:10045000390748F4029907C082E090E090932801A0
:100460008093270140C002990BC083E090E09093F5
:10047000280180932701109216011092150133C0B4
:1004800081E090E090932801809327012CC0209177
:1004900015013091160180910001909101012817FA
:1004A000390748F4029907C083E090E0909328014F
:1004B0008093270118C002990BC082E090E09093CE
:1004C00028018093270110921601109215010BC08C
:1004D00081E090E0909328018093270104C010925E
:1004E00028011092270180912701909128018230E4
:1004F000910541F08330910591F00197D9F4109264
:100500002401089580E18093240180911501909148
:10051000160101969093160180931501089510928B
:100520002401809115019091160101969093160176
:1005300080931501089580911C0190911D010097F1
:1005400019F0019761F007C081E090E090931D01E0
:1005500080931C0104C010921D0110921C01809117
:100560001C0190911D01019759F4909120018091F7
:100570002301892B90912401892B8093140185B943
:10058000089511B88FEF82B984B915B861E070E0B1
:1005900080E090E00E94F2000E94780010921F011B
:1005A00010921E0110922201109221011092260138
:1005B00010922501109228011092270110921D011E
:1005C00010921C010F2EF8EE8F2EF3E09F2EA12C1F
:1005D000B12CF02D0F2EFCE2CF2EDD24D394E12C94
:1005E000F12CF02D8CE2C81681E0D806E104F1046C
:1005F00028F00E940301C12CD12C760188EE8816C8
:1006000083E09806A104B10428F00E944901812CDE
:10061000912C54010E947E010E94F9010E949B02CC
:1006200080911B018823E1F310921B018FEFC81A00
:10063000D80AE80AF80A8FEF881A980AA80AB80AAE
:06064000D1CFF894FFCFBA
:100646000100010000000000000200000000670039
:0406560000000000A0
:00000001FF
