:100000000C9446000C9465000C9465000C946500FB
:100010000C9465000C9465000C9465000C946500CC
:100020000C9465000C9465000C9465000C946500BC
:100030000C9465000C941C010C9465000C946500F4
:100040000C9465000C9465000C9465000C9465009C
:100050000C9465000C9465000C9465000C9465008C
:100060000C9465000C9465000C9465000C9465007C
:100070000C9465000C9465000C9465000C9465006C
:100080000C9465000C9465000C94650011241FBE4F
:10009000CFEFD0E4DEBFCDBF11E0A0E0B1E0EEE9EC
:1000A000F9E000E00BBF02C007900D92AA38B1073B
:1000B000D9F721E0AAE8B1E001C01D92AB39B2073F
:1000C000E1F70E94DA020C94CD040C94000040E0A9
:1000D00050E00CC000002F5F3F4F02C020E030E036
:1000E000273063E03607B4F34F5F5F4F4817590777
:1000F000ACF308959BB19F7B9BB988B98BB18068A5
:100100008BB900008BB18F778BB982E090E00E94B1
:100110006700089581E00E947A000895813120F4FB
:1001200081580E947A00089581550E947A000895AE
:1001300084E690E00E94670088E30E947A0086E0EF
:100140000E947A008FE00E947A0081E00E947A008B
:100150008AE090E00E94670008959BB190649BB98B
:1001600088B98BB180688BB900008BB18F778BB960
:1001700081E090E00E9467000895EF92FF920F9354
:100180001F93CF93DF93182FEB010E948A000EC0BC
:1001900001E0010F812F0E948E007E018FEFE81A8F
:1001A000F80A88810E94AD00102FE7018881811133
:1001B000EFCFDF91CF911F910F91FF90EF900895B6
:1001C000CF93C82F8A3019F48DE00E94E00080910F
:1001D000C00085FFFCCFC093C60080E090E0CF91C7
:1001E00008958BE0809381008DE790E090938900E3
:1001F0008093880082E080936F00109285001092B7
:1002000084008091780190917901A0917A01B09158
:100210007B018093900190939101A0939201B09300
:1002200093018FB780688FBF089510928100089561
:1002300081E08093940108951F920F920FB60F9260
:1002400011240BB60F922F933F934F935F936F93AD
:100250007F938F939F93AF93BF93EF93FF9380917F
:10026000900190919101A0919201B0919301019719
:10027000A109B1098093900190939101A0939201FB
:10028000B0939301892B8A2B8B2B91F40E94180138
:100290008091780190917901A0917A01B0917B01D0
:1002A0008093900190939101A0939201B093930158
:1002B000FF91EF91BF91AF919F918F917F916F913E
:1002C0005F914F913F912F910F900BBE0F900FBEFA
:1002D0000F901F9018956093780170937901809327
:1002E0007A0190937B0160939001709391018093C8
:1002F0009201909393010895CF92DF92EF92FF9233
:100300006B017C016091950170919601809197013C
:1003100090919801A70196010E94FC02882309F49C
:1003200058C020E030E0A901C701B6010E94FC02DC
:10033000811106C0E1E9F0E080818870808305C00A
:10034000E1E9F0E080818360808328E539E344E7D8
:100350005FE3C701B6010E94FC0288233CF48FEFE3
:100360009FEF909399008093980027C020E034E29B
:1003700044EF56E4C701B6010E945B0418162CF442
:10038000109299001092980018C020E030E040E0F0
:1003900053E4C701B6010E9460049B01AC0160E018
:1003A00074E284EF9AE40E9401030E947303615097
:1003B00071097093990060939800109295001092C3
:1003C0009400C0929501D0929601E0929701F0922C
:1003D0009801FF90EF90DF90CF90089580E4809394
:1003E00090008BE08093910060E070E0CB010E9470
:1003F0007C010895109290001092910008958091D0
:10040000990190919A018230910539F128F4009771
:1004100059F0019781F08CC08330910509F443C0F5
:10042000049709F473C084C081E090E090939A012E
:100430008093990181C080918F01813039F482E0ED
:1004400090E090939A018093990176C081E090E0CA
:1004500090939A01809399016FC020918D0130E0B3
:10046000E0918C01F0E0EC5EFE4F8081082E000CE4
:10047000990B821793073CF082E090E090939A01E9
:100480008093990159C0821793070CF055C0809151
:100490008A018F5F80938A0183E090E090939A01B4
:1004A0008093990149C020918B0130E040918A01ED
:1004B000E42FF0E0E050FF4F8081082E000C990BF4
:1004C000821793074CF0443138F483E090E0909326
:1004D0009A018093990130C08217930774F44431D4
:1004E00060F480918C018F5F80938C0182E090E0BA
:1004F00090939A01809399011FC04431E8F084E001
:1005000090E090939A018093990116C080918F0199
:10051000813039F484E090E090939A0180939901BE
:100520000BC081E090E090939A018093990104C000
:1005300010929A01109299018091990190919A01DB
:100540008230910571F08330910549F1019789F569
:1005500010928D0110928C0110928B0110928A01E1
:100560000895E0918C01F0E0EE0FFF1FEE0FFF1FEA
:10057000E85DFE4F60817181828193810E947A03E0
:1005800060938E0170E080E090E00E94A9030E94D9
:100590007C0180918D018F5F80938D01089560E0D3
:1005A00070E0CB010E947C0180918B018F5F809372
:1005B0008B01089511B88FEF82B984B915B80E94E4
:1005C000EE0162E370E080E090E00E946B010E9427
:1005D000F10010929A011092990190B181E089275F
:1005E000817080938F010E94FF0180919401882384
:1005F000E1F310929401F1CF0E94E60308F481E048
:1006000008950E9415030C9421040E941A0458F0C6
:100610000E94130440F029F45F3F29F00C940A046F
:1006200051110C9455040C9410040E94320468F388
:100630009923B1F3552391F3951B550BBB27AA279B
:1006400062177307840738F09F5F5F4F220F331FD5
:10065000441FAA1FA9F335D00E2E3AF0E0E832D09D
:1006600091505040E695001CCAF72BD0FE2F29D0A0
:10067000660F771F881FBB1F261737074807AB0772
:10068000B0E809F0BB0B802DBF01FF2793585F4FE7
:100690003AF09E3F510578F00C940A040C945504EE
:1006A0005F3FE4F3983ED4F3869577956795B795C9
:1006B000F7959F5FC9F7880F911D9695879597F9D4
:1006C0000895E1E0660F771F881FBB1F621773074D
:1006D0008407BA0720F0621B730B840BBA0BEE1F62
:1006E00088F7E09508950E947A036894B1110C94FC
:1006F000550408950E943A0488F09F5798F0B92F46
:100700009927B751B0F0E1F0660F771F881F991F46
:100710001AF0BA95C9F714C0B13091F00E94540490
:10072000B1E008950C945404672F782F8827B85FA0
:1007300039F0B93FCCF3869577956795B395D9F79E
:100740003EF490958095709561957F4F8F4F9F4FA8
:100750000895E89409C097FB3EF4909580957095B4
:1007600061957F4F8F4F9F4F9923A9F0F92F96E9FD
:10077000BB279395F695879577956795B795F11172
:10078000F8CFFAF4BB0F11F460FF1BC06F5F7F4F0F
:100790008F4F9F4F16C0882311F096E911C0772321
:1007A00021F09EE8872F762F05C0662371F096E82A
:1007B000862F70E060E02AF09A95660F771F881FF9
:1007C000DAF7880F9695879597F90895990F00089D
:1007D000550FAA0BE0E8FEEF16161706E807F90713
:1007E000C0F012161306E407F50798F0621B730BAE
:1007F000840B950B39F40A2661F0232B242B252B2F
:1008000021F408950A2609F4A140A6958FEF811DD1
:10081000811D089597F99F6780E870E060E0089572
:100820009FEF80EC089500240A9416161706180608
:100830000906089500240A941216130614060506E4
:100840000895092E0394000C11F4882352F0BB0F75
:1008500040F4BF2B11F460FF04C06F5F7F4F8F4FD8
:100860009F4F089557FD9058440F551F59F05F3F13
:1008700071F04795880F97FB991F61F09F3F79F0C2
:1008800087950895121613061406551FF2CF469544
:10089000F1DF08C0161617061806991FF1CF8695C6
:1008A0007105610508940895E894BB2766277727AA
:1008B000CB0197F908950E94E60308F48FEF08959D
:1008C0000E9473040C9421040E94130438F00E94C7
:1008D0001A0420F0952311F00C940A040C941004CF
:1008E00011240C9455040E94320470F3959FC1F3B7
:1008F000950F50E0551F629FF001729FBB27F00DCE
:10090000B11D639FAA27F00DB11DAA1F649F662722
:10091000B00DA11D661F829F2227B00DA11D621F71
:10092000739FB00DA11D621F839FA00D611D221F2B
:10093000749F3327A00D611D231F849F600D211D0F
:10094000822F762F6A2F11249F5750409AF0F1F092
:1009500088234AF0EE0FFF1FBB1F661F771F881FFB
:1009600091505040A9F79E3F510580F00C940A0425
:100970000C9455045F3FE4F3983ED4F38695779545
:100980006795B795F795E7959F5FC1F7FE2B880FA1
:0E099000911D9695879597F90895F894FFCFDD
:10099E003214321E32323214321E141E1432321EF1
:1009AE0032141E003232250D250D3232250D0D2545
:1009BE000D25323232250D00A4D0A443A4D0A44379
:1009CE00A4D0A44300D00244719D82430000DC43B6
:1009DE00A4D0A4430000DC430000DC4300D002445A
:1009EE00A4D08243A4D0824300D00244A4D0824338
:1009FE0000D002440000DC43A4D0A4430000DC433A
:100A0E0000D00244A4D08243010000000000000286
:0A0A1E0000000000E00000000000EE
:00000001FF
