:100000000C944D000C946C000C946C000C946C00DF
:100010000C946C000C946C000C946C000C946C00B0
:100020000C946C000C946C000C946C000C946C00A0
:100030000C946C000C9423010C946C000C946C00D8
:100040000C946C000C946C000C946C000C946C0080
:100050000C946C000C946C000C946C000C946C0070
:100060000C946C000C946C000C946C000C946C0060
:100070000C946C000C946C000C946C000C946C0050
:100080000C946C000C946C000C946C008F01A20119
:10009000D1011C0250025702670211241FBECFEF8C
:1000A000D0E4DEBFCDBF11E0A0E0B1E0E2E3F6E0D6
:1000B00000E00BBF02C007900D92AC31B107D9F739
:1000C00021E0ACE1B1E001C01D92A532B207E1F739
:1000D0000E94F2020C9417030C94000040E050E0E0
:1000E0000CC000002F5F3F4F02C020E030E02730FF
:1000F00063E03607B4F34F5F5F4F48175907ACF31F
:1001000008959BB19F7B9BB988B98BB180688BB9EF
:1001100000008BB18F778BB982E090E00E946E0077
:10012000089581E00E9481000895813120F4815872
:100130000E948100089581550E948100089584E6FF
:1001400090E00E946E0088E30E94810086E00E9499
:1001500081008FE00E94810081E00E9481008AE09E
:1001600090E00E946E0008959BB190649BB988B99D
:100170008BB180688BB900008BB18F778BB981E030
:1001800090E00E946E000895EF92FF920F931F93EC
:10019000CF93DF93182FEB010E9491000EC001E076
:1001A000010F812F0E9495007E018FEFE81AF80A57
:1001B00088810E94B400102FE70188818111EFCF60
:1001C000DF91CF911F910F91FF90EF900895CF9302
:1001D000C82F8A3019F48DE00E94E7008091C0009A
:1001E00085FFFCCFC093C60080E090E0CF910895DA
:1001F0008BE0809381008DE790E09093890080935D
:10020000880082E080936F00109285001092840035
:100210008091010190910201A0910301B09104012C
:1002200080931E0190931F01A0932001B0932101A0
:100230008FB780688FBF089510928100089581E084
:100240008093220108951F920F920FB60F921124EE
:100250000BB60F922F933F934F935F936F937F93C0
:100260008F939F93AF93BF93EF93FF9380911E0162
:1002700090911F01A0912001B09121010197A10946
:10028000B10980931E0190931F01A0932001B093A8
:100290002101892B8A2B8B2B91F40E941F018091C5
:1002A000010190910201A0910301B091040180939A
:1002B0001E0190931F01A0932001B0932101FF9193
:1002C000EF91BF91AF919F918F917F916F915F91CE
:1002D0004F913F912F910F900BBE0F900FBE0F903B
:1002E0001F901895609301017093020180930301A0
:1002F0009093040160931E0170931F01809320016D
:10030000909321010895E0912301F0912401E730B9
:10031000F10508F01BC1EA5BFF4F0C940E0315B802
:1003200085E080931C0181E00E94950080911C0172
:10033000805D0E94B40081E090E09093240180935E
:10034000230108C100990DC080910001833048F459
:1003500084E090E0909324018093230110920001A7
:10036000F9C0009B0EC080910001833050F421E061
:1003700030E030932401209323018F5F80930001AC
:10038000E9C0009BE7C080910001833009F0E2C022
:1003900082E090E090932401809323011092000169
:1003A000D9C000990FC080910001833058F484E0D7
:1003B00090E0909324018093230110920001109209
:1003C0001D01C8C0009B0EC080910001833050F415
:1003D00022E030E030932401209323018F5F80934B
:1003E0000001B8C0009B11C080910001833069F406
:1003F00080911D01811109C083E090E09093240158
:100400008093230110920001A5C0009BA3C080919E
:100410000001833009F09EC080911D01813009F0F8
:1004200099C081E090E09093240180932301109281
:10043000000110921D018EC000990DC08091000135
:10044000833048F484E090E090932401809323016A
:10045000109200017FC0009B0EC08091000183308C
:1004600050F423E030E030932401209323018F5F88
:10047000809300016FC0009B6DC0809100018330AC
:1004800009F068C082E090E09093240180932301FA
:100490001092000180911D018F5F80931D015AC051
:1004A00085E090E0909324018093230153C000994C
:1004B00007C085E090E090932401809323014AC017
:1004C00086E090E0909324018093230143C080B1A3
:1004D00090E08095909583709927892B81F080B169
:1004E00090E08095909583709927029741F080B1B4
:1004F00090E08095909583709927039739F486E072
:1005000090E0909324018093230124C080B190E077
:1005100080959095837099270197E1F480911C0153
:10052000893068F085E080931C010E94910081E091
:100530000E94950080911C01805D0E94B40081E0C2
:1005400090E0909324018093230104C01092240131
:100550001092230180912301909124018230910512
:1005600069F018F4019739F008958330910549F046
:10057000049751F0089581E085B9089582E085B926
:10058000089584E085B9089585B18230B1F48091F1
:100590001C018F5F80931C01893030F063E171E0B2
:1005A00081E00E94C400089581E00E94950080913E
:1005B0001C01805D0E94B400089580911C0181118E
:1005C00003C081E080931C0180911C0181508093C5
:1005D0001C0181E00E94950080911C01805D0E94B9
:1005E000B400089511B88FEF82B984B915B887B9EE
:1005F00018B88AB91BB80E949F0064E670E080E0DA
:1006000090E00E9472010E94F8000E948301809194
:1006100022018823E1F310922201F7CFEE0FFF1F92
:100620000024001C0BBE0790F691E02D0994F8946D
:02063000FFCFFA
:1006320003010000000000000200000000E70000CB
:0C06420000000057494E4E4552210000B8
:00000001FF
