:100000000C9446000C9465000C9465000C946500FB
:100010000C9465000C9465000C9465000C946500CC
:100020000C9465000C9465000C9465000C946500BC
:100030000C9465000C94AD030C9465000C94650061
:100040000C9465000C9465000C9465000C9465009C
:100050000C9465000C9465000C9465000C9465008C
:100060000C9465000C9465000C9465000C9465007C
:100070000C9465000C9465000C9465000C9465006C
:100080000C9465000C9465000C94650011241FBE4F
:10009000CFEFD0E4DEBFCDBF14E0A0E0B1E0E8EAEE
:1000A000F3E100E00BBF02C007900D92AE36B1073E
:1000B000D9F724E0AEE6B4E001C01D92AC3BB20734
:1000C000E1F70E945F070C94D2090C94000040E015
:1000D00050E00CC000002F5F3F4F02C020E030E036
:1000E000273063E03607B4F34F5F5F4F4817590777
:1000F000ACF308959BB19F7B9BB988B98BB18068A5
:100100008BB900008BB18F778BB982E090E00E94B1
:100110006700089581E00E947A000895813120F4FB
:1001200081580E947A00089581550E947A000895AE
:1001300084E690E00E94670088E30E947A0086E0EF
:100140000E947A008FE00E947A0081E00E947A008B
:100150008AE090E00E94670008959BB190649BB98B
:1001600088B98BB180688BB900008BB18F778BB960
:1001700081E090E00E9467000895EF92FF920F9354
:100180001F93CF93DF93182FEB010E948A000EC0BC
:1001900001E0010F812F0E948E007E018FEFE81A8F
:1001A000F80A88810E94AD00102FE7018881811133
:1001B000EFCFDF91CF911F910F91FF90EF900895B6
:1001C000CF93C82F8A3019F48DE00E94E00080910F
:1001D000C00085FFFCCFC093C60080E090E0CF91C7
:1001E00008958091B5049091B6048230910549F14B
:1001F00028F4009769F0019791F08EC18430910541
:1002000009F4FFC008F492C0059709F45BC184C1EA
:1002100083E090E09093B6048093B50481C180910F
:100220007904823039F482E090E09093B6048093B0
:10023000B50476C181E090E09093B6048093B50454
:100240006FC180B190E0809590958F779927029744
:1002500079F481E090E09093B6048093B504109215
:10026000750410927604109277041092780458C1A5
:1002700080B190E0809590958F7799270897C9F085
:1002800080B190E0809590958F779927409789F07D
:1002900080B190E0809590958F779927809749F06D
:1002A00080B190E0809590958F7799278034910563
:1002B000B1F580B190E0809590958F779927089758
:1002C00021F483E08093710423C080B190E0809595
:1002D00090958F779927409721F482E0809371045D
:1002E00017C080B190E0809590958F77992780977F
:1002F00021F481E0809371040BC080B190E080957F
:1003000090958F7799278034910511F4109271049C
:1003100083E090E09093B6048093B50401C182E03D
:1003200090E09093B6048093B504FAC080B190E059
:10033000809590958F779927029779F481E090E0E6
:100340009093B6048093B5041092750410927604CD
:10035000109277041092780454C080B190E0809598
:1003600090958F779927409789F080B190E080959C
:1003700090958F779927809749F080B190E080958C
:1003800090958F77992780349105A1F580B190E001
:10039000809590958F779927409721F482E08093FC
:1003A000700421C080B190E0809590958F77992757
:1003B000809749F480917104982F990F890F8F5F6E
:1003C0008093700410C080B190E0809590958F77F5
:1003D00099278034910539F480917104982F990FF1
:1003E000890F8093700484E090E09093B60480932A
:1003F000B50496C083E090E09093B6048093B50472
:100400008FC080B190E0809590958F779927029763
:1004100079F481E090E09093B6048093B504109253
:10042000750410927604109277041092780478C0C4
:1004300080B190E0809590958F779927409789F0CB
:1004400080B190E0809590958F779927809749F0BB
:1004500080B190E0809590958F77992780349105B1
:1004600051F580B190E0809590958F7799274097CE
:1004700021F482E080936F0417C080B190E08095F2
:1004800090958F779927809721F481E080936F046E
:100490000BC080B190E0809590958F77992780343C
:1004A000910511F410926F0485E090E09093B604EA
:1004B0008093B50435C084E090E09093B6048093B7
:1004C000B5042EC080B190E0809590958F779927E4
:1004D000049739F481E090E09093B6048093B504DA
:1004E0001FC080916E04813039F482E090E09093D7
:1004F000B6048093B50414C0823039F481E090E0F2
:100500009093B6048093B5040BC085E090E090937F
:10051000B6048093B50404C01092B6041092B504DA
:100520008091B5049091B6048230910589F08530B0
:100530009105A1F1019709F07FC01092710410920A
:10054000700410926F0410926E0410927204089559
:1005500080B190E0809590958F739927029749F428
:100560001092750410927604109277041092780419
:1005700008956CE672E081E00E94BD0066E772E0DB
:1005800089E00E94BD006EE772E081E10E94BD003B
:1005900066E872E088E10E94BD00089580917004D1
:1005A00090E020916F04FC01EE0FFF1FE80FF91F90
:1005B000E20FF11DEE0FFF1FEE0FFF1FEC59FE4F74
:1005C000208131814281538160917504709176045C
:1005D00080917704909178040E94290860937504B3
:1005E0007093760480937704909378046FE872E0B8
:1005F00083E00E94BD0080B190E0809590958F7758
:100600009927809731F481E080936E040E948A00DC
:10061000089580B190E0809590958F7799278034E8
:10062000910551F481E08093720482E080936E041E
:100630000E948A001092790408958091B9049091E3
:10064000BA048130910559F018F00297D1F031C009
:1006500081E090E09093BA048093B9042EC0809119
:100660007204882339F082E090E09093BA0480937A
:10067000B90423C081E090E09093BA048093B90458
:100680001CC080B190E0809590958F739927029758
:1006900049F40E948A0081E090E09093BA0480932C
:1006A000B9040BC082E090E09093BA048093B9043F
:1006B00004C01092BA041092B9048091B9049091C8
:1006C000BA048130910521F0E0F0029721F015C0C5
:1006D0001092BB0408956091750470917604809126
:1006E0007704909178040E9495086093BB046EEAA9
:1006F00072E083E00E94BD0008951092BA04109247
:10070000B90408958BE0809381008DE790E0909389
:1007100089008093880082E080936F0010928500AA
:10072000109284008091540290915502A09156023B
:10073000B091570280937B0490937C04A0937D0436
:10074000B0937E048FB780688FBF089510928100A8
:10075000089581E080937F0408951F920F920FB651
:100760000F9211240BB60F922F933F934F935F93E9
:100770006F937F938F939F93AF93BF93EF93FF9369
:1007800080917B0490917C04A0917D04B0917E04C3
:100790000197A109B10980937B0490937C04A093F5
:1007A0007D04B0937E04892B8A2B8B2B91F40E94BD
:1007B000A9038091540290915502A0915602B091E4
:1007C000570280937B0490937C04A0937D04B093A4
:1007D0007E04FF91EF91BF91AF919F918F917F9197
:1007E0006F915F914F913F912F910F900BBE0F90A2
:1007F0000FBE0F901F90189560935402709355028E
:10080000809356029093570260937B0470937C040C
:1008100080937D0490937E040895CF93C42F282F56
:1008200030E021503109822F880F280F822F880F46
:10083000880F280F822F860F8F5F0E948E008C2FCB
:100840000E94AD00CF9108958091B3049091B404BB
:100850008130910571F030F082309105E1F003971D
:1008600061F146C081E090E09093B4048093B304BA
:1008700043C080917904813039F482E090E0909314
:10088000B4048093B30438C081E090E09093B40442
:100890008093B30431C080917404813039F483E0D3
:1008A00090E09093B4048093B30426C082E090E07B
:1008B0009093B4048093B3041FC08091730481307B
:1008C00039F482E090E09093B4048093B30414C0B0
:1008D000823039F481E090E09093B4048093B304C3
:1008E0000BC083E090E09093B4048093B30404C001
:1008F0001092B4041092B3048091B3049091B404A4
:100900008230910591F08330910509F487C00197F9
:1009100009F0D2C0109280041092B10410927404B5
:10092000109273041092720408950E94600963E0AB
:1009300070E00E940008809380040E9460096CE0CF
:1009400070E00E9400088093B1041092B20460C06D
:10095000F0E0EE59FE4F4AE2608181E00E940D0412
:100960008091B20490E0FC01E05AFE4F20812111F9
:100970000BC0FC01E05AFE4F2FE0208340E260E014
:1009800081E00E940D0412C0203159F4FC01E05AAC
:10099000FE4F2FE1208340E260E081E00E940D04E1
:1009A00005C0FC01E05AFE4F21502083E091B204C3
:1009B000F0E0E05AFE4F43E2608181E00E940D04C6
:1009C000E091B204F0E0E05AFE4F60816F5F40E2D8
:1009D00081E00E940D0480B190E0809590958F7722
:1009E0009927049781F48091B20490E0FC01EE59BC
:1009F000FE4F2081FC01E05AFE4F8081281303C086
:100A000081E0809374048091B2048F5F8093B2047C
:100A1000E091B204E23008F49BCF08958091B104D4
:100A200090E020918004FC01EE0FFF1FE80FF91FFA
:100A3000E20FF11DEE0FFF1FEE0FFF1FEC59FE4FEF
:100A400020813181428153816091750470917604D7
:100A500080917704909178040E942908609375042E
:100A600070937604809377049093780461EC72E03D
:100A700081E10E94BD0080B190E0809590958F77D4
:100A800099278034910531F481E0809373040E94AA
:100A90008A00089580B190E0809590958F7799278E
:100AA000809751F482E08093730481E08093720414
:100AB0000E948A0010927904089580B1079980B14C
:100AC00008958091B7049091B8048230910539F16E
:100AD00028F4009769F0019791F0A1C08430910546
:100AE00009F478C008F449C0059709F491C097C08B
:100AF00081E090E09093B8048093B70494C00E9482
:100B000060096FE170E00E9400088F5F80937A04B3
:100B100082E090E09093B8048093B70484C080B1E1
:100B200090E08095909583709927029739F484E03E
:100B300090E09093B8048093B70475C080B190E0C2
:100B40008095909583709927019739F485E090E01E
:100B50009093B8048093B70466C080B190E080950C
:100B6000909583709927892B09F05DC083E090E010
:100B70009093B8048093B70456C080B190E08095FC
:100B8000909583709927029739F484E090E09093D0
:100B9000B8048093B70447C080B190E080959095E9
:100BA00083709927019739F485E090E09093B80419
:100BB0008093B70438C080B190E0809590958370A1
:100BC0009927892B81F582E090E09093B804809377
:100BD000B70429C080B190E08095909583709927E3
:100BE000029739F484E090E09093B8048093B704BE
:100BF0001AC080B190E08095909583709927892BD9
:100C000091F482E090E09093B8048093B7040BC015
:100C100082E090E09093B8048093B70404C01092EF
:100C2000B8041092B7048091B7049091B80483304F
:100C3000910571F018F4029739F008958430910508
:100C400049F00597A9F0089580917A048BB9089529
:100C50001BB808950E9460096FE170E00E940008CF
:100C60008F5F80937A04109279040E948A0008951D
:100C700020917A0480EF820F803108F085C083B123
:100C800090E0809590958F7199274F9709F477C0E0
:100C900083B190E0809590958F7199274E9709F4D4
:100CA0006EC083B190E0809590958F7199274D9794
:100CB00009F465C083B190E0809590958F71992774
:100CC0004C9709F45CC083B190E0809590958F714A
:100CD00099274B9709F453C083B190E08095909584
:100CE0008F7199274A9709F44AC083B190E08095A3
:100CF00090958F719927499709F441C083B190E08D
:100D0000809590958F7199274897C9F183B190E0AC
:100D1000809590958F719927479789F183B190E0DD
:100D2000809590958F719927469749F183B190E00E
:100D3000809590958F719927459709F183B190E03F
:100D4000809590958F7199274497C9F083B190E071
:100D5000809590958F719927439789F083B190E0A2
:100D6000809590958F719927429749F083B183B10F
:100D700090E0809590958F719927409729F4809104
:100D800079040E945D05089588EF820F883008F08D
:100D900045C083B190E0809590958F7199270F970A
:100DA000C1F183B190E0809590958F7199270E974E
:100DB00081F183B190E0809590958F7199270D977F
:100DC00041F183B190E0809590958F7199270C97B0
:100DD00001F183B190E0809590958F7199270B97E1
:100DE000C1F083B190E0809590958F7199270A9713
:100DF00081F083B190E0809590958F719927099744
:100E000041F083B190E0809590958F719927089774
:100E100029F4809179040E945D0508958CEF820F7A
:100E2000843028F583B190E0809590958F71992753
:100E30000797C1F083B190E0809590958F719927C5
:100E4000069781F083B190E0809590958F719927F6
:100E5000059741F083B190E0809590958F71992727
:100E6000049729F4809179040E945D0508958EEF1E
:100E7000820F8230A8F483B190E0809590958F71B5
:100E80009927039741F083B190E0809590958F71F9
:100E90009927029729F4809179040E945D050895AD
:100EA000213061F483B190E0809590958F719927FE
:100EB000019721F4809179040E945D05089511B88D
:100EC0008FEF82B987B918B88AB91BB814B885B939
:100ED000E1E8F4E01182108282E390E0A0E0B0E06B
:100EE00082839383A483B58386839783A087B18706
:100EF00021E635E033872287158614868687978713
:100F0000A08BB18B828B938BA48BB58B24E234E0C6
:100F1000378B268B118E108E828F938FA48FB58F77
:100F2000868F978FA0A3B1A321EF30E033A322A334
:100F300015A214A286A397A3A0A7B1A782A793A7DF
:100F4000A4A7B5A78DE193E097A786A76AE070E014
:100F500080E090E00E94FC030E9482030E949800BF
:100F600081E00E948E0010E041C0C12FD0E0FE0160
:100F7000EE0FFF1FEC0FFD1FEE0FFF1FEE0FFF1F09
:100F8000EF57FB4F46815781608571858281938140
:100F9000A481B581481759076A077B0779F47F0157
:100FA000DF010284F385E02D8D919C910995F70175
:100FB000918380831682178210861186CE01880F56
:100FC000991FFC01EC0FFD1FEE0FFF1FEE0FFF1F1F
:100FD000EF57FB4F86819781A085B1850196A11DB2
:100FE000B11D86839783A087B1871F5F143008F4F3
:100FF000BCCF80917F048823E1F310927F04B3CFAC
:1010000097FB072E16F4009407D077FD09D00E94B5
:10101000140807FC05D03EF4909581959F4F0895E4
:10102000709561957F4F0895AA1BBB1B51E107C0C6
:10103000AA1FBB1FA617B70710F0A61BB70B881F68
:10104000991F5A95A9F780959095BC01CD010895F7
:101050005058BB27AA270E9440080C94DB080E9426
:10106000CD0838F00E94D40820F039F49F3F19F4DD
:1010700026F40C94CA080EF4E095E7FB0C94C4081F
:10108000E92F0E94EC0858F3BA1762077307840728
:10109000950720F079F4A6F50C940E090EF4E0956E
:1010A0000B2EBA2FA02D0B01B90190010C01CA0122
:1010B000A0011124FF27591B99F0593F50F4503ECD
:1010C00068F11A16F040A22F232F342F4427585FBF
:1010D000F3CF469537952795A795F0405395C9F7D7
:1010E0007EF41F16BA0B620B730B840BBAF091508F
:1010F000A1F0FF0FBB1F661F771F881FC2F70EC02E
:10110000BA0F621F731F841F48F487957795679500
:10111000B795F7959E3F08F0B0CF9395880F08F0EC
:101120009927EE0F9795879508950E94F40888F007
:101130009F5798F0B92F9927B751B0F0E1F0660F9B
:10114000771F881F991F1AF0BA95C9F714C0B130DC
:1011500091F00E940E09B1E008950C940E09672FDA
:10116000782F8827B85F39F0B93FCCF3869577950B
:101170006795B395D9F73EF49095809570956195F4
:101180007F4F8F4F9F4F089597F99F6780E870E0DA
:1011900060E008959FEF80EC089500240A941616ED
:1011A000170618060906089500240A941216130655
:1011B000140605060895092E0394000C11F48823E3
:1011C00052F0BB0F40F4BF2B11F460FF04C06F5FFF
:1011D0007F4F8F4F9F4F089557FD9058440F551FD5
:1011E00059F05F3F71F04795880F97FB991F61F0A9
:1011F0009F3F79F087950895121613061406551F20
:10120000F2CF4695F1DF08C0161617061806991F8B
:10121000F1CF86957105610508940895E894BB2780
:1012200066277727CB0197F908958F929F92AF9207
:10123000BF92CF92DF92EF92FF92CF93DF93EC01B8
:10124000688179818A819B8161157105810591058C
:1012500021F464E279ED8BE597E02DE133EF41E095
:1012600050E00E946F0949015A019B01AC01A7EAB5
:10127000B1E40E948E096B017C01ACEEB4EFA501D4
:1012800094010E949C09DC01CB018C0D9D1DAE1DBB
:10129000BF1DB7FF03C00197A109B0488883998398
:1012A000AA83BB839F77DF91CF91FF90EF90DF9070
:1012B000CF90BF90AF909F908F9008950C94150998
:1012C00086E692E00C941509A0E0B0E080936602F7
:1012D00090936702A0936802B09369020895052E67
:1012E00097FB1EF400940E94860957FD07D00E94C8
:1012F000A10907FC03D04EF40C9486095095409543
:10130000309521953F4F4F4F5F4F089590958095B1
:10131000709561957F4F8F4F9F4F08950E94C3092D
:10132000A59F900DB49F900DA49F800D911D112439
:101330000895B7FF0C948E090E948E09821B930BAF
:101340000895A1E21A2EAA1BBB1BFD010DC0AA1F06
:10135000BB1FEE1FFF1FA217B307E407F50720F01E
:10136000A21BB30BE40BF50B661F771F881F991F99
:101370001A9469F760957095809590959B01AC01E2
:10138000BD01CF010895A29FB001B39FC001A39FEB
:10139000700D811D1124911DB29F700D811D1124AE
:0813A000911D0895F894FFCFA0
:1013A800D202DB02E302D202DB02E302EC02F40225
:1013B800FE0209031103190323032B0333033E031E
:1013C80046034F03590361036A03590361036A0320
:1013D800590361036A037803800389037803800350
:1013E8008903780380038903930398039B03A0036D
:1013F800A603AD03B403B903C003CC03D103D603DA
:101408000F1F04140000803F0000C03F0000304060
:101418000000803F0000A03F000000406666863F55
:1014280033333340C3F568400000803F0000C03FBD
:10143800000000400000A03F6666E63F6666064082
:10144800CDCC8C3F6666C63F6666E63FD7A3504064
:10145800F6288C403333A3409A9989403D0AA74027
:10146800CDCCBC40F6281C400AD76340C3F5884061
:101478009A99593F0000A03FCDCCCC3F9A99593F4B
:101488000000A03FCDCCCC3F6666863F3333D33FC8
:1014980000000040930398039B03DF03E603AD03BA
:1014A800B403B903EE03CC03D103D603F503FA035F
:1014B800FF03F503040409040E0413041804F503D8
:1014C800FA03090404041D04220427042C041D043F
:1014D800310436043B04400445044A044F045404D0
:1014E80059045E04040463045E04040463040E04E3
:1014F8006804090401000000000000020000000068
:10150800E000000000000100000004004472696E61
:101518006B732020200050726F64756365004D6501
:1015280061742020200043616E476F6F6473005917
:1015380065733F20202020204E6F3F202020202050
:1015480020414444204D4F52452020202000546F14
:1015580074616C205061796D656E743A2020202486
:1015680000436F6E742E3F20205920206F72202078
:101578004E003129426F74746C65003229517561CF
:10158800727400332947616C6C6F6E0031294C69A5
:1015980074657200322931322063616E7300332919
:1015A8003620622D7061636B0031293220636E74BE
:1015B8000032293420636E740033293620636F7536
:1015C8006E740031293220626E6400322934206240
:1015D8006E64003329362062756E646C65003129AB
:1015E800534D2062670032294D444D206267003315
:1015F800294C524720626167003129534D20706B96
:101608000032294D444D20706B0033294C5247203D
:101618007061636B616765003129534D20636E000B
:1016280032294D444D20636E0033294C52472063C4
:10163800616E004D696C6B004F4A00536F64610026
:101648004170706C650042616E616E610047726145
:10165800706573005269627300536872696D700037
:10166800427572676572204D6561740050656173DB
:1016780000436F726E00526176696F6C6973004146
:1016880070706C65730042616E616E617300422D0B
:101698004D65617400312E303000312E3530003206
:1016A8002E373500312E323500322E303000312EB3
:1016B800303500322E383000332E363400312E3893
:1016C8003000322E313000312E313000312E353598
:1016D80000332E323600342E333800352E313000A8
:1016E800342E333000352E323200352E3930003268
:1016F8002E343400332E353600342E323800302E56
:0E170800383500312E363000312E36350000D7
:00000001FF
