:100000000C9446000C9465000C9465000C946500FB
:100010000C9465000C9465000C9465000C946500CC
:100020000C9465000C9465000C9465000C946500BC
:100030000C9465000C942F060C9465000C946500DC
:100040000C9465000C9465000C9465000C9465009C
:100050000C9465000C9465000C9465000C9465008C
:100060000C9465000C9465000C9465000C9465007C
:100070000C9465000C9465000C9465000C9465006C
:100080000C9465000C9465000C94650011241FBE4F
:10009000CFEFD0E4DEBFCDBF13E0A0E0B1E0ECE9EC
:1000A000F4E100E00BBF02C007900D92AA37B10740
:1000B000D9F723E0AAE7B3E001C01D92AB3CB20739
:1000C000E1F70E9406080C944C0A0C94000040E0F2
:1000D00050E00CC000002F5F3F4F02C020E030E036
:1000E000273063E03607B4F34F5F5F4F4817590777
:1000F000ACF308959BB19F7B9BB988B98BB18068A5
:100100008BB900008BB18F778BB982E090E00E94B1
:100110006700089581E00E947A000895813120F4FB
:1001200081580E947A00089581550E947A000895AE
:1001300084E690E00E94670088E30E947A0086E0EF
:100140000E947A008FE00E947A0081E00E947A008B
:100150008AE090E00E94670008959BB190649BB98B
:1001600088B98BB180688BB900008BB18F778BB960
:1001700081E090E00E9467000895EF92FF920F9354
:100180001F93CF93DF93182FEB010E948A000EC0BC
:1001900001E0010F812F0E948E007E018FEFE81A8F
:1001A000F80A88810E94AD00102FE7018881811133
:1001B000EFCFDF91CF911F910F91FF90EF900895B6
:1001C000CF93C82F8A3019F48DE00E94E00080910F
:1001D000C00085FFFCCFC093C60080E090E0CF91C7
:1001E00008958091C7039091C80382309105F1F082
:1001F00028F4009769F0019791F0B0C08430910520
:1002000009F470C008F440C0059709F489C0A6C07D
:1002100081E090E09093C8038093C703A3C082E07D
:1002200090E09093C8038093C7039CC080B190E096
:10023000809590958F779927029739F484E090E024
:100240009093C8038093C7038DC080B190E08095E0
:1002500090958F779927019739F485E090E09093F6
:10026000C8038093C7037EC080B190E080959095CD
:100270008F779927892B09F075C083E090E09093E0
:10028000C8038093C7036EC080B190E080959095BD
:100290008F779927029739F484E090E09093C80310
:1002A0008093C7035FC080B190E0809590958F7771
:1002B0009927019739F485E090E09093C8038093E3
:1002C000C70350C080B190E0809590958F779927B3
:1002D000892B09F047C082E090E09093C803809397
:1002E000C70340C080B190E0809590958F779927A3
:1002F000029739F484E090E09093C8038093C70399
:1003000031C080B190E0809590958F779927892BA7
:1003100049F582E090E09093C8038093C70322C020
:1003200080B190E0809590958F779927019739F467
:1003300085E090E09093C8038093C70313C080B119
:1003400090E0809590958F779927892B59F482E0DA
:1003500090E09093C8038093C70304C01092C80331
:100360001092C7038091C7039091C8038330910511
:10037000D9F030F48130910549F0029789F0089561
:100380008430910599F00597F9F008950E94DA09F3
:100390006FE170E00E94A9088F5F80938A0308953F
:1003A00080918A0385B9089515B808950E94DA09E5
:1003B0006FE170E00E94A9088F5F80938A0310921A
:1003C00089030E948A00089520918A0380EF820F9A
:1003D000803108F090C083B190E0809590958F7146
:1003E00099274F9709F477C083B190E08095909555
:1003F0008F7199274E9709F46EC083B190E0809574
:1004000090958F7199274D9709F465C083B190E05D
:10041000809590958F7199274C9709F45CC083B1B2
:1004200090E0809590958F7199274B9709F453C070
:1004300083B190E0809590958F7199274A9709F440
:100440004AC083B190E0809590958F719927499724
:1004500009F441C083B190E0809590958F71992700
:100460004897C9F183B190E0809590958F71992755
:10047000479789F183B190E0809590958F71992786
:10048000469749F183B190E0809590958F719927B7
:10049000459709F183B190E0809590958F719927E8
:1004A0004497C9F083B190E0809590958F7199271A
:1004B000439789F083B190E0809590958F7199274B
:1004C000429749F083B183B190E0809590958F7108
:1004D0009927409781F480B1079B9BC080B190E041
:1004E000809590958F779927019709F092C081E0C8
:1004F00080938903089588EF820F883008F042C006
:1005000083B190E0809590958F7199270F97C1F1F5
:1005100083B190E0809590958F7199270E9781F126
:1005200083B190E0809590958F7199270D9741F157
:1005300083B190E0809590958F7199270C9701F188
:1005400083B190E0809590958F7199270B97C1F0BA
:1005500083B190E0809590958F7199270A9781F0EB
:1005600083B190E0809590958F719927099741F01C
:1005700083B190E0809590958F719927089711F439
:1005800080B108958CEF820F843010F583B190E034
:10059000809590958F7199270797C1F083B190E06E
:1005A000809590958F719927069781F083B190E09F
:1005B000809590958F719927059741F083B190E0D0
:1005C000809590958F719927049711F480B10895C3
:1005D0008EEF820F823090F483B190E080959095F9
:1005E0008F719927039741F083B190E080959095A2
:1005F0008F719927029711F480B10895213049F441
:1006000083B190E0809590958F719927019709F4B7
:1006100080B108958091C5039091C6038230910501
:1006200049F128F4009769F0019791F090C1843066
:10063000910509F408C108F494C0059709F466C14E
:1006400086C181E090E09093C6038093C50383C187
:1006500080918903823039F482E090E09093C60360
:100660008093C50378C181E090E09093C6038093A6
:10067000C50371C180B190E0809590958F779927DF
:10068000029789F481E090E09093C6038093C503BC
:1006900010928503109286031092870310928803AC
:1006A0001092820358C180B190E0809590958F7729
:1006B00099270897C9F080B190E0809590958F7741
:1006C0009927409789F080B190E0809590958F7739
:1006D0009927809749F080B190E0809590958F7729
:1006E000992780349105B1F580B190E0809590957F
:1006F0008F779927089721F483E08093810323C0A3
:1007000080B190E0809590958F779927409721F45C
:1007100082E08093810317C080B190E0809590952E
:100720008F779927809721F481E0809381030BC014
:1007300080B190E0809590958F77992780349105CE
:1007400011F41092810383E090E09093C6038093AC
:10075000C50301C182E090E09093C6038093C50376
:10076000FAC080B190E0809590958F779927029795
:1007700089F481E090E09093C6038093C5031092C2
:1007800085031092860310928703109288031092BB
:10079000820359C080B190E0809590958F7799271A
:1007A000409789F080B190E0809590958F77992758
:1007B000809749F080B190E0809590958F77992748
:1007C00080349105C9F580B190E0809590958F7740
:1007D0009927409749F480918103982F990F890FA9
:1007E0008E5F8093800321C080B190E080959095CA
:1007F0008F779927809749F480918103982F990FDB
:10080000890F8F5F8093800310C080B190E0809546
:1008100090958F7799278034910539F480918103E1
:10082000982F990F890F8093800384E090E0909334
:10083000C6038093C5038FC083E090E09093C60306
:100840008093C50388C080B190E0809590958F77A4
:100850009927029789F481E090E09093C6038093F2
:10086000C50310928503109286031092870310929D
:100870008803109282036FC080B190E080959095BC
:100880008F779927409789F080B190E08095909577
:100890008F779927809749F080B190E08095909567
:1008A0008F7799278034910551F580B190E080953C
:1008B00090958F779927409721F482E080937F036A
:1008C00017C080B190E0809590958F779927809799
:1008D00021F481E080937F030BC080B190E080958C
:1008E00090958F7799278034910511F410927F03AA
:1008F00085E090E09093C6038093C5032CC084E00C
:1009000090E09093C6038093C50325C080B190E02A
:10091000809590958F779927049739F481E090E03E
:100920009093C6038093C50316C080917E038130E7
:1009300039F482E090E09093C6038093C5030BC026
:1009400085E090E09093C6038093C50304C01092A5
:10095000C6031092C5038091C5039091C6038330EE
:100960009105E9F030F48130910551F0029789F05A
:10097000089584309105A9F1059709F494C008956C
:10098000109281031092800310927F0310927E03D5
:1009900008956CEA71E081E00E94BD0008958091A5
:1009A0008103811106C06DEC71E081E00E94BD0001
:1009B0000895813029F46EEE71E00E94BD00089523
:1009C000823031F46FE072E081E00E94BD00089552
:1009D000833009F0B1C060E372E081E00E94BD00A5
:1009E000089580918003811106C061E572E081E085
:1009F0000E94BD000895813029F461E572E00E94F3
:100A0000BD000895823031F462E772E081E00E9417
:100A1000BD000895833031F463E972E081E00E9403
:100A2000BD000895843031F464EB72E081E00E94EF
:100A3000BD000895853031F465ED72E081E00E94DB
:100A4000BD000895863031F466EF72E081E00E94C7
:100A5000BD000895873031F466EF72E081E00E94B6
:100A6000BD000895883031F466EF72E081E00E94A5
:100A7000BD000895893031F467E173E081E00E94A0
:100A8000BD0008958A3031F467E173E081E00E948F
:100A9000BD0008958B3009F04FC067E173E081E03D
:100AA0000E94BD0008958091800390E020917F0313
:100AB000FC01EE0FFF1FE80FF91FE20FF11DEE0F13
:100AC000FF1FEE0FFF1FEC5FFE4F2081318142813F
:100AD0005381609185037091860380918703909183
:100AE00088030E94D20860938503709386038093E5
:100AF00087039093880368E373E083E00E94BD005E
:100B000080B190E0809590958F77992780349105FA
:100B100021F481E080937E03089580B190E0809578
:100B200090958F779927809739F481E0809382039D
:100B300010927E031092890308958091C9039091C9
:100B4000CA038130910559F018F00297D1F02FC0F7
:100B500081E090E09093CA038093C9032CC08091F8
:100B60008203882339F082E090E09093CA03809357
:100B7000C90321C081E090E09093CA038093C90328
:100B80001AC080B190E0809590958F779927029751
:100B900039F481E090E09093CA038093C9030BC0BD
:100BA00082E090E09093CA038093C90304C010923E
:100BB000CA031092C9038091C9039091CA0381307E
:100BC000910519F0029751F0089510927A0310924E
:100BD0007B0310927C0310927D030895809185031E
:100BE00090918603A0918703B091880380937A0344
:100BF00090937B03A0937C03B0937D0367E573E040
:100C000081E10E94BD0008958BE0809381008DE713
:100C100090E0909389008093880082E080936F0039
:100C2000109285001092840080919401909195011A
:100C3000A0919601B091970180938B0390938C03C0
:100C4000A0938D03B0938E038FB780688FBF0895F4
:100C500010928100089581E080938F0308951F9280
:100C60000F920FB60F9211240BB60F922F933F9352
:100C70004F935F936F937F938F939F93AF93BF93A4
:100C8000EF93FF9380918B0390918C03A0918D0340
:100C9000B0918E030197A109B10980938B039093C2
:100CA0008C03A0938D03B0938E03892B8A2B8B2BFF
:100CB00091F40E942B068091940190919501A0914E
:100CC0009601B091970180938B0390938C03A0932E
:100CD0008D03B0938E03FF91EF91BF91AF919F91E0
:100CE0008F917F916F915F914F913F912F910F90D5
:100CF0000BBE0F900FBE0F901F901895609394013C
:100D000070939501809396019093970160938B0364
:100D100070938C0380938D0390938E030895CF93EB
:100D2000C42F282F30E021503109822F880F280F3F
:100D3000822F880F880F280F822F860F8F5F0E94C7
:100D40008E008C2F0E94AD00CF9108958091C30337
:100D50009091C4038130910579F038F0823091058B
:100D6000E9F0039709F445C06FC081E090E09093EB
:100D7000C4038093C3036CC080918903813039F42C
:100D800082E090E09093C4038093C30361C081E04C
:100D900090E09093C4038093C3035AC080B190E065
:100DA000809590958F779927029789F481E090E05C
:100DB0009093C4038093C30310928503109286031B
:100DC00010928703109288031092820341C0809191
:100DD0008403813039F483E090E09093C4038093DE
:100DE000C30336C082E090E09093C4038093C303B2
:100DF0002FC080B190E0809590958F7799270297CA
:100E000089F481E090E09093C4038093C30310922F
:100E10008503109286031092870310928803109224
:100E2000820316C080918303813039F482E090E020
:100E30009093C4038093C3030BC083E090E090932E
:100E4000C4038093C30304C01092C4031092C3036D
:100E50008091C3039091C4038230910581F0833067
:100E6000910509F485C0019709F0CFC01092900355
:100E70001092C103109284031092830308950E947C
:100E8000DA0963E070E00E94A908809390030E9451
:100E9000DA096CE070E00E94A9088093C103109207
:100EA000C20360C0F0E0EE5FFE4F4AE2608181E085
:100EB0000E948F068091C20390E0FC01E050FF4F3A
:100EC000208121110BC0FC01E050FF4F2FE0208357
:100ED00040E260E081E00E948F0612C0203159F4A8
:100EE000FC01E050FF4F2FE1208340E260E181E010
:100EF0000E948F0605C0FC01E050FF4F2150208367
:100F0000E091C203F0E0E050FF4F43E2608181E0F6
:100F10000E948F06E091C203F0E0E050FF4F608135
:100F20006F5F40E281E00E948F0680B190E0809583
:100F300090958F779927049781F48091C20390E070
:100F4000FC01EE5FFE4F2081FC01E050FF4F8081ED
:100F5000281303C081E0809384038091C2038F5FD4
:100F60008093C203E091C203E23008F49BCF08955E
:100F70008091C10390E020919003FC01EE0FFF1FD0
:100F8000E80FF91FE20FF11DEE0FFF1FEE0FFF1F1D
:100F9000EC5FFE4F20813181428153816091850356
:100FA0007091860380918703909188030E94D208F4
:100FB00060938503709386038093870390938803DF
:100FC00068E673E081E10E94BD0080B190E0809509
:100FD00090958F7799278034910531F481E0809343
:100FE00083030E948A00089580B190E080959095D7
:100FF0008F779927809749F41092830381E080933B
:1010000082030E948A0010928903089511B88FEF1D
:1010100082B987B918B890EC9AB99FE39BB984B9A3
:1010200015B8E1E9F3E01182108284E690E0A0E0D7
:10103000B0E082839383A483B58386839783A0875C
:10104000B18721EF30E033872287158614868687A3
:101050009787A08BB18B828B938BA48BB58B26EA61
:1010600036E0378B268B118E108E828F938FA48F54
:10107000B58F868F978FA0A3B1A32AE033E033A367
:1010800022A315A214A286A397A3A0A7B1A782A703
:1010900093A7A4A7B5A78DE995E097A786A76AE0CF
:1010A00070E080E090E00E947E060E9404060E94AC
:1010B000980081E00E948E0010E041C0C12FD0E076
:1010C000FE01EE0FFF1FEC0FFD1FEE0FFF1FEE0FD7
:1010D000FF1FEF56FC4F46815781608571858281E5
:1010E0009381A481B581481759076A077B0779F472
:1010F0007F01DF010284F385E02D8D919C9109959C
:10110000F701918380831682178210861186CE01A3
:10111000880F991FFC01EC0FFD1FEE0FFF1FEE0F54
:10112000FF1FEF56FC4F86819781A085B185019600
:10113000A11DB11D86839783A087B1871F5F1430DF
:1011400008F4BCCF80918F038823E1F310928F03C2
:10115000B3CF97FB072E16F4009407D077FD09D084
:101160000E94BD0807FC05D03EF4909581959F4FE5
:101170000895709561957F4F0895AA1BBB1B51E19F
:1011800007C0AA1FBB1FA617B70710F0A61BB70BF7
:10119000881F991F5A95A9F780959095BC01CD019C
:1011A00008955058BB27AA270E94E9080C945509B6
:1011B0000E94470938F00E944E0920F039F49F3F01
:1011C00019F426F40C9444090EF4E095E7FB0C9412
:1011D0003E09E92F0E94660958F3BA1762077307A0
:1011E0008407950720F079F4A6F50C9488090EF48D
:1011F000E0950B2EBA2FA02D0B01B90190010C0127
:10120000CA01A0011124FF27591B99F0593F50F43E
:10121000503E68F11A16F040A22F232F342F442796
:10122000585FF3CF469537952795A795F04053958E
:10123000C9F77EF41F16BA0B620B730B840BBAF05E
:101240009150A1F0FF0FBB1F661F771F881FC2F7C9
:101250000EC0BA0F621F731F841F48F487957795DD
:101260006795B795F7959E3F08F0B0CF9395880F97
:1012700008F09927EE0F97958795089597F99F673E
:1012800080E870E060E008959FEF80EC089500240E
:101290000A941616170618060906089500240A94DB
:1012A00012161306140605060895092E0394000C61
:1012B00011F4882352F0BB0F40F4BF2B11F460FFF0
:1012C00004C06F5F7F4F8F4F9F4F089557FD905819
:1012D000440F551F59F05F3F71F04795880F97FBFA
:1012E000991F61F09F3F79F08795089512161306B4
:1012F0001406551FF2CF4695F1DF08C016161706E3
:101300001806991FF1CF8695710561050894089517
:10131000E894BB2766277727CB0197F908958F922A
:101320009F92AF92BF92CF92DF92EF92FF92CF93B4
:10133000DF93EC01688179818A819B816115710558
:101340008105910521F464E279ED8BE597E02DE1CB
:1013500033EF41E050E00E94E90949015A019B0145
:10136000AC01A7EAB1E40E94080A6B017C01ACEE73
:10137000B4EFA50194010E94160ADC01CB018C0D8B
:101380009D1DAE1DBF1DB7FF03C00197A109B04849
:1013900088839983AA83BB839F77DF91CF91FF9046
:1013A000EF90DF90CF90BF90AF909F908F90089577
:1013B0000C948F0986EA91E00C948F09A0E0B0E0CC
:1013C0008093A6019093A701A093A801B093A901CF
:1013D0000895052E97FB1EF400940E94000A57FD05
:1013E00007D00E941B0A07FC03D04EF40C94000A9D
:1013F00050954095309521953F4F4F4F5F4F089541
:1014000090958095709561957F4F8F4F9F4F089570
:101410000E943D0AA59F900DB49F900DA49F800D42
:10142000911D11240895B7FF0C94080A0E94080A20
:10143000821B930B0895A1E21A2EAA1BBB1BFD0170
:101440000DC0AA1FBB1FEE1FFF1FA217B307E407A3
:10145000F50720F0A21BB30BE40BF50B661F771FFB
:10146000881F991F1A9469F76095709580959095DB
:101470009B01AC01BD01CF010895A29FB001B39FB4
:10148000C001A39F700D811D1124911DB29F700D8D
:0C149000811D1124911D0895F894FFCFD8
:10149C000F1F04140000803F0000C03F00003040CC
:1014AC000000803F0000A03F000000406666863FC1
:1014BC0033333340C3F568400000803F0000C03F29
:1014CC00000000400000A03F6666E63F66660640EE
:1014DC00CDCC8C3F6666C63F6666E63FD7A35040D0
:1014EC00F6288C403333A3409A9989403D0AA74093
:1014FC00CDCCBC40F6281C400AD76340C3F58840CD
:10150C009A99593F0000A03FCDCCCC3F9A99593FB6
:10151C000000A03FCDCCCC3F6666863F3333D33F33
:10152C00000000400100000000000002000000006C
:10153C00E000000000000100000004004472696E2D
:10154C006B73202050726F64756365204D656174F8
:10155C0020202043616E476F6F647320004D696CCF
:10156C006B202020204F4A20202020202020205398
:10157C006F6461202020202020202020200041703A
:10158C00706C6573202042616E616E617320202047
:10159C00477261706573202020202020202000528B
:1015AC0069627320202020536872696D702020209E
:1015BC0020427572676572204D6561742020200091
:1015CC005065617320202020436F726E20202020F4
:1015DC002020526176696F6C6973202020202020B6
:1015EC00003129426F74746C652032295175617217
:1015FC00742020332947616C6C6F6E2020202020D2
:10160C00200031294C6974657220322931326361B2
:10161C006E73202033293620622D7061636B20207D
:10162C0020200031293220636E742020322934208E
:10163C00636E74202033293620636F756E742020FE
:10164C002020200031293220626E6420203229347F
:10165C0020626E6420203329362062756E646C65BE
:10166C0020202020003129534D2062672032294D43
:10167C00444D206267202033294C52472062616719
:10168C002020202020003129534D20706B2032293E
:10169C004D444D20706B202033294C5247207061F3
:1016AC00636B61676520003129534D20636E2032D6
:1016BC00294D444D20636E202033294C5247206322
:1016CC00616E2020202020005965733F20202020AF
:1016DC00204E6F3F202020202020414444204D4F9D
:1016EC00524520202020005E5E20546F74616C20D7
:1016FC005061796D656E7400436F6E742E3F2020BF
:0A170C005920206F7220204E0000CB
:00000001FF
