:100000000C9446000C9465000C9465000C946500FB
:100010000C9465000C9465000C9465000C946500CC
:100020000C9465000C9465000C9465000C946500BC
:100030000C9465000C9439060C9465000C946500D2
:100040000C9465000C9465000C9465000C9465009C
:100050000C9465000C9465000C9465000C9465008C
:100060000C9465000C9465000C9465000C9465007C
:100070000C9465000C9465000C9465000C9465006C
:100080000C9465000C9465000C94650011241FBE4F
:10009000CFEFD0E4DEBFCDBF15E0A0E0B1E0ECEAE9
:1000A000F4E100E00BBF02C007900D92A830B10749
:1000B000D9F725E0A8E0B5E001C01D92A935B20747
:1000C000E1F70E9410080C94540A0C94000040E0E0
:1000D00050E00CC000002F5F3F4F02C020E030E036
:1000E000273063E03607B4F34F5F5F4F4817590777
:1000F000ACF308959BB19F7B9BB988B98BB18068A5
:100100008BB900008BB18F778BB982E090E00E94B1
:100110006700089581E00E947A000895813120F4FB
:1001200081580E947A00089581550E947A000895AE
:1001300084E690E00E94670088E30E947A0086E0EF
:100140000E947A008FE00E947A0081E00E947A008B
:100150008AE090E00E94670008959BB190649BB98B
:1001600088B98BB180688BB900008BB18F778BB960
:1001700081E090E00E9467000895EF92FF920F9354
:100180001F93CF93DF93182FEB010E948A000EC0BC
:1001900001E0010F812F0E948E007E018FEFE81A8F
:1001A000F80A88810E94AD00102FE7018881811133
:1001B000EFCFDF91CF911F910F91FF90EF900895B6
:1001C000CF93C82F8A3019F48DE00E94E00080910F
:1001D000C00085FFFCCFC093C60080E090E0CF91C7
:1001E0000895809151059091520582309105F1F06A
:1001F00028F4009769F0019791F0B0C08430910520
:1002000009F470C008F440C0059709F489C0A6C07D
:1002100081E090E09093520580935105A3C082E065
:1002200090E090935205809351059CC080B190E07E
:10023000809590958F779927029739F484E090E024
:1002400090935205809351058DC080B190E08095C8
:1002500090958F779927019739F485E090E09093F6
:100260005205809351057EC080B190E080959095B5
:100270008F779927892B09F075C083E090E09093E0
:100280005205809351056EC080B190E080959095A5
:100290008F779927029739F484E090E09093520584
:1002A000809351055FC080B190E0809590958F77E5
:1002B0009927019739F485E090E090935205809357
:1002C000510550C080B190E0809590958F77992727
:1002D000892B09F047C082E090E09093520580930B
:1002E000510540C080B190E0809590958F77992717
:1002F000029739F484E090E0909352058093510581
:1003000031C080B190E0809590958F779927892BA7
:1003100049F582E090E0909352058093510522C008
:1003200080B190E0809590958F779927019739F467
:1003300085E090E0909352058093510513C080B101
:1003400090E0809590958F779927892B59F482E0DA
:1003500090E0909352058093510504C0109252058D
:10036000109251058091510590915205833091056D
:10037000D9F030F48130910549F0029789F0089561
:100380008430910599F00597F9F008950E94E209EB
:100390006FE170E00E94B1088F5F809314050895AB
:1003A000809114058BB908951BB808950E94E20945
:1003B0006FE170E00E94B1088F5F80931405109286
:1003C00013050E948A0008952091140580EF820F82
:1003D000803108F090C083B190E0809590958F7146
:1003E00099274F9709F477C083B190E08095909555
:1003F0008F7199274E9709F46EC083B190E0809574
:1004000090958F7199274D9709F465C083B190E05D
:10041000809590958F7199274C9709F45CC083B1B2
:1004200090E0809590958F7199274B9709F453C070
:1004300083B190E0809590958F7199274A9709F440
:100440004AC083B190E0809590958F719927499724
:1004500009F441C083B190E0809590958F71992700
:100460004897C9F183B190E0809590958F71992755
:10047000479789F183B190E0809590958F71992786
:10048000469749F183B190E0809590958F719927B7
:10049000459709F183B190E0809590958F719927E8
:1004A0004497C9F083B190E0809590958F7199271A
:1004B000439789F083B190E0809590958F7199274B
:1004C000429749F083B183B190E0809590958F7108
:1004D0009927409781F480B1079B9BC080B190E041
:1004E000809590958F779927019709F092C081E0C8
:1004F00080931305089588EF820F883008F042C07A
:1005000083B190E0809590958F7199270F97C1F1F5
:1005100083B190E0809590958F7199270E9781F126
:1005200083B190E0809590958F7199270D9741F157
:1005300083B190E0809590958F7199270C9701F188
:1005400083B190E0809590958F7199270B97C1F0BA
:1005500083B190E0809590958F7199270A9781F0EB
:1005600083B190E0809590958F719927099741F01C
:1005700083B190E0809590958F719927089711F439
:1005800080B108958CEF820F843010F583B190E034
:10059000809590958F7199270797C1F083B190E06E
:1005A000809590958F719927069781F083B190E09F
:1005B000809590958F719927059741F083B190E0D0
:1005C000809590958F719927049711F480B10895C3
:1005D0008EEF820F823090F483B190E080959095F9
:1005E0008F719927039741F083B190E080959095A2
:1005F0008F719927029711F480B10895213049F441
:1006000083B190E0809590958F719927019709F4B7
:1006100080B1089580914F059091500582309105E9
:1006200049F128F4009769F0019791F090C1843066
:10063000910509F408C108F494C0059709F466C14E
:1006400086C181E090E09093500580934F0583C16F
:1006500080911305823039F482E090E09093500548
:1006600080934F0578C181E090E09093500580938E
:100670004F0571C180B190E0809590958F77992753
:10068000029789F481E090E09093500580934F05A4
:1006900010920F051092100510921105109212057C
:1006A00010920C0558C180B190E0809590958F779D
:1006B00099270897C9F080B190E0809590958F7741
:1006C0009927409789F080B190E0809590958F7739
:1006D0009927809749F080B190E0809590958F7729
:1006E000992780349105B1F580B190E0809590957F
:1006F0008F779927089721F483E080930B0523C017
:1007000080B190E0809590958F779927409721F45C
:1007100082E080930B0517C080B190E080959095A2
:100720008F779927809721F481E080930B050BC088
:1007300080B190E0809590958F77992780349105CE
:1007400011F410920B0583E090E090935005809394
:100750004F0501C182E090E09093500580934F05D2
:10076000FAC080B190E0809590958F779927029795
:1007700089F481E090E09093500580934F051092AA
:100780000F0510921005109211051092120510928B
:100790000C0559C080B190E0809590958F7799278E
:1007A000409789F080B190E0809590958F77992758
:1007B000809749F080B190E0809590958F77992748
:1007C00080349105C9F580B190E0809590958F7740
:1007D0009927409749F480910B05982F990F890F1D
:1007E0008E5F80930A0521C080B190E0809590953E
:1007F0008F779927809749F480910B05982F990F4F
:10080000890F8F5F80930A0510C080B190E08095BA
:1008100090958F7799278034910539F480910B0555
:10082000982F990F890F80930A0584E090E09093A8
:10083000500580934F058FC083E090E09093500562
:1008400080934F0588C080B190E0809590958F7718
:100850009927029789F481E090E090935005809366
:100860004F0510920F05109210051092110510926D
:10087000120510920C056FC080B190E080959095A4
:100880008F779927409789F080B190E08095909577
:100890008F779927809749F080B190E08095909567
:1008A0008F7799278034910551F580B190E080953C
:1008B00090958F779927409721F482E080930905DE
:1008C00017C080B190E0809590958F779927809799
:1008D00021F481E0809309050BC080B190E0809500
:1008E00090958F7799278034910511F4109209051E
:1008F00085E090E09093500580934F052CC084E0F4
:1009000090E09093500580934F0525C080B190E012
:10091000809590958F779927049739F481E090E03E
:100920009093500580934F0516C080910805813043
:1009300039F482E090E09093500580934F050BC00E
:1009400085E090E09093500580934F0504C010928D
:10095000500510924F0580914F05909150058330BE
:100960009105E9F030F48130910551F0029789F05A
:10097000089584309105A9F1059709F494C008956C
:1009800010920B0510920A051092090510920805A5
:10099000089564E272E081E00E94BD0008958091B4
:1009A0000B05811106C065E472E081E00E94BD0084
:1009B0000895813029F466E672E00E94BD00089532
:1009C000823031F467E872E081E00E94BD00089552
:1009D000833009F0B5C068EA72E081E00E94BD0092
:1009E000089580910A05811106C069EC72E081E0EA
:1009F0000E94BD000895813029F469EC72E00E94E4
:100A0000BD000895823031F46AEE72E081E00E9408
:100A1000BD000895833031F46BE073E081E00E9403
:100A2000BD000895843031F46CE273E081E00E94EF
:100A3000BD000895853031F46DE473E081E00E94DB
:100A4000BD000895863031F46EE673E081E00E94C7
:100A5000BD000895873031F46EE673E081E00E94B6
:100A6000BD000895883031F46EE673E081E00E94A5
:100A7000BD000895893031F46FE873E081E00E9491
:100A8000BD0008958A3031F46FE873E081E00E9480
:100A9000BD0008958B3009F053C06FE873E081E02A
:100AA0000E94BD00089580910A0590E020910905FB
:100AB000FC01EE0FFF1FE80FF91FE20FF11DEE0F13
:100AC000FF1FEE0FFF1FEC59FE4F20813181428145
:100AD000538160910F0570911005809111059091DF
:100AE00012050E94DA0860930F0570931005809339
:100AF00011059093120560EB73E083E00E94BD0046
:100B000080B190E0809590958F77992780349105FA
:100B100031F481E0809308050E948A00089580B135
:100B200090E0809590958F779927809749F481E0A0
:100B300080930C05109208050E948A0010921305FC
:100B4000089580915305909154058130910559F095
:100B500018F00297D1F02FC081E090E090935405F7
:100B6000809353052CC080910C05882339F082E0D6
:100B700090E0909354058093530521C081E090E06C
:100B800090935405809353051AC080B190E08095EE
:100B900090958F779927029739F481E090E09093B0
:100BA0005405809353050BC082E090E09093540568
:100BB0008093530504C01092540510925305809100
:100BC0005305909154058130910521F030F1029741
:100BD00051F01FC0109255051092560510925705FE
:100BE00010925805089580910F0590911005A091DD
:100BF0001105B09112058093550590935605A09369
:100C00005705B09358056FEC73E081E10E94BD0079
:100C10000895109254051092530508958BE0809327
:100C200081008DE790E0909389008093880082E0B6
:100C300080936F00109285001092840080910C02C6
:100C400090910D02A0910E02B0910F0280931505B4
:100C500090931605A0931705B09318058FB7806879
:100C60008FBF089510928100089581E08093190547
:100C700008951F920F920FB60F9211240BB60F9288
:100C80002F933F934F935F936F937F938F939F9394
:100C9000AF93BF93EF93FF93809115059091160545
:100CA000A0911705B09118050197A109B10980938A
:100CB000150590931605A0931705B0931805892B79
:100CC0008A2B8B2B91F40E94350680910C02909117
:100CD0000D02A0910E02B0910F0280931505909322
:100CE0001605A0931705B0931805FF91EF91BF91DA
:100CF000AF919F918F917F916F915F914F913F91B4
:100D00002F910F900BBE0F900FBE0F901F90189554
:100D100060930C0270930D0280930E0290930F0269
:100D20006093150570931605809317059093180529
:100D30000895CF93C42F282F30E021503109822FFE
:100D4000880F280F822F880F880F280F822F860F79
:100D50008F5F0E948E008C2F0E94AD00CF9108956E
:100D600080914D0590914E058130910579F038F0D4
:100D700082309105E9F0039709F445C06FC081E026
:100D800090E090934E0580934D056CC080911305C3
:100D9000813039F482E090E090934E0580934D05C8
:100DA00061C081E090E090934E0580934D055AC05C
:100DB00080B190E0809590958F779927029789F47C
:100DC00081E090E090934E0580934D0510920F05C1
:100DD00010921005109211051092120510920C0538
:100DE00041C080910E05813039F483E090E090930A
:100DF0004E0580934D0536C082E090E090934E05FD
:100E000080934D052FC080B190E0809590958F77AD
:100E10009927029789F481E090E090934E058093A2
:100E20004D0510920F0510921005109211051092A9
:100E3000120510920C0516C080910D05813039F411
:100E400082E090E090934E0580934D050BC083E0C7
:100E500090E090934E0580934D0504C010924E058E
:100E600010924D0580914D0590914E05823091056F
:100E700081F08330910509F485C0019709F0CFC056
:100E800010921A0510924B0510920E0510920D0546
:100E900008950E94E20963E070E00E94B108809327
:100EA0001A050E94E2096CE070E00E94B10880938C
:100EB0004B0510924C0560C0F0E0EE59FE4F4AE23F
:100EC000608181E00E94990680914C0590E0FC01D0
:100ED000E05AFE4F208121110BC0FC01E05AFE4F69
:100EE0002FE0208340E260E081E00E94990612C07A
:100EF000203159F4FC01E05AFE4F2FE1208340E2FB
:100F000060E181E00E94990605C0FC01E05AFE4FB5
:100F100021502083E0914C05F0E0E05AFE4F43E27F
:100F2000608181E00E949906E0914C05F0E0E05A72
:100F3000FE4F60816F5F40E281E00E94990680B1C0
:100F400090E0809590958F779927049781F4809110
:100F50004C0590E0FC01EE59FE4F2081FC01E05A67
:100F6000FE4F8081281303C081E080930E0580919D
:100F70004C058F5F80934C05E0914C05E23008F4FE
:100F80009BCF089580914B0590E020911A05FC01BC
:100F9000EE0FFF1FE80FF91FE20FF11DEE0FFF1F0D
:100FA000EE0FFF1FEC59FE4F2081318142815381AA
:100FB00060910F05709110058091110590911205B7
:100FC0000E94DA0860930F05709310058093110555
:100FD0009093120560EE73E081E10E94BD0080B144
:100FE00090E0809590958F7799278034910531F422
:100FF00081E080930D050E948A00089580B190E001
:10100000809590958F779927809749F410920D05D8
:1010100081E080930C050E948A00109213050895C8
:1010200011B88FEF82B987B918B88AB91BB814B84C
:1010300085B9EBE1F5E01182108284E690E0A0E052
:10104000B0E082839383A483B58386839783A0874C
:10105000B18721EF30E03387228715861486868793
:101060009787A08BB18B828B938BA48BB58B20EB56
:1010700036E0378B268B118E108E828F938FA48F44
:10108000B58F868F978FA0A3B1A32AE033E033A357
:1010900022A315A214A286A397A3A0A7B1A782A7F3
:1010A00093A7A4A7B5A781EA95E097A786A76AE0CA
:1010B00070E080E090E00E9488060E940E060E9488
:1010C000980081E00E948E0010E041C0C12FD0E066
:1010D000FE01EE0FFF1FEC0FFD1FEE0FFF1FEE0FC7
:1010E000FF1FE55EFA4F46815781608571858281D9
:1010F0009381A481B581481759076A077B0779F462
:101100007F01DF010284F385E02D8D919C9109958B
:10111000F701918380831682178210861186CE0193
:10112000880F991FFC01EC0FFD1FEE0FFF1FEE0F44
:10113000FF1FE55EFA4F86819781A085B1850196F4
:10114000A11DB11D86839783A087B1871F5F1430CF
:1011500008F4BCCF809119058823E1F3109219059A
:10116000B3CF97FB072E16F4009407D077FD09D074
:101170000E94C50807FC05D03EF4909581959F4FCD
:101180000895709561957F4F0895AA1BBB1B51E18F
:1011900007C0AA1FBB1FA617B70710F0A61BB70BE7
:1011A000881F991F5A95A9F780959095BC01CD018C
:1011B00008955058BB27AA270E94F1080C945D0996
:1011C0000E944F0938F00E94560920F039F49F3FE1
:1011D00019F426F40C944C090EF4E095E7FB0C94FA
:1011E0004609E92F0E946E0958F3BA176207730780
:1011F0008407950720F079F4A6F50C9490090EF475
:10120000E0950B2EBA2FA02D0B01B90190010C0116
:10121000CA01A0011124FF27591B99F0593F50F42E
:10122000503E68F11A16F040A22F232F342F442786
:10123000585FF3CF469537952795A795F04053957E
:10124000C9F77EF41F16BA0B620B730B840BBAF04E
:101250009150A1F0FF0FBB1F661F771F881FC2F7B9
:101260000EC0BA0F621F731F841F48F487957795CD
:101270006795B795F7959E3F08F0B0CF9395880F87
:1012800008F09927EE0F97958795089597F99F672E
:1012900080E870E060E008959FEF80EC08950024FE
:1012A0000A941616170618060906089500240A94CB
:1012B00012161306140605060895092E0394000C51
:1012C00011F4882352F0BB0F40F4BF2B11F460FFE0
:1012D00004C06F5F7F4F8F4F9F4F089557FD905809
:1012E000440F551F59F05F3F71F04795880F97FBEA
:1012F000991F61F09F3F79F08795089512161306A4
:101300001406551FF2CF4695F1DF08C016161706D2
:101310001806991FF1CF8695710561050894089507
:10132000E894BB2766277727CB0197F908958F921A
:101330009F92AF92BF92CF92DF92EF92FF92CF93A4
:10134000DF93EC01688179818A819B816115710548
:101350008105910521F464E279ED8BE597E02DE1BB
:1013600033EF41E050E00E94F10949015A019B012D
:10137000AC01A7EAB1E40E94100A6B017C01ACEE5B
:10138000B4EFA50194010E941E0ADC01CB018C0D73
:101390009D1DAE1DBF1DB7FF03C00197A109B04839
:1013A00088839983AA83BB839F77DF91CF91FF9036
:1013B000EF90DF90CF90BF90AF909F908F90089567
:1013C0000C9497098EE192E00C949709A0E0B0E0AC
:1013D00080931E0290931F02A0932002B0932102DB
:1013E0000895052E97FB1EF400940E94080A57FDED
:1013F00007D00E94230A07FC03D04EF40C94080A7D
:1014000050954095309521953F4F4F4F5F4F089530
:1014100090958095709561957F4F8F4F9F4F089560
:101420000E94450AA59F900DB49F900DA49F800D2A
:10143000911D11240895B7FF0C94100A0E94100A00
:10144000821B930B0895A1E21A2EAA1BBB1BFD0160
:101450000DC0AA1FBB1FEE1FFF1FA217B307E40793
:10146000F50720F0A21BB30BE40BF50B661F771FEB
:10147000881F991F1A9469F76095709580959095CB
:101480009B01AC01BD01CF010895A29FB001B39FA4
:10149000C001A39F700D811D1124911DB29F700D7D
:0C14A000811D1124911D0895F894FFCFC8
:1014AC00F103FA030204F103FA0302040B0413041C
:1014BC001D0428043004380442044A0452045D0418
:1014CC0065046E047804800489047804800489041B
:1014DC0078048004890497049F04A80497049F044B
:1014EC00A80497049F04A804B204B704BA04BF0468
:1014FC00C604CE04D504DA04E104ED04F204F704C6
:10150C000F1F04140000803F0000C03F000030405B
:10151C000000803F0000A03F000000406666863F50
:10152C0033333340C3F568400000803F0000C03FB8
:10153C00000000400000A03F6666E63F666606407D
:10154C00CDCC8C3F6666C63F6666E63FD7A350405F
:10155C00F6288C403333A3409A9989403D0AA74022
:10156C00CDCCBC40F6281C400AD76340C3F588405C
:10157C009A99593F0000A03FCDCCCC3F9A99593F46
:10158C000000A03FCDCCCC3F6666863F3333D33FC3
:10159C0000000040B204B704BA04BF04C604CE0471
:1015AC00D504DA040005ED04F204F7040100000090
:1015BC000000000200000000E0000000000001003C
:1015CC00000004004472696E6B73202050726F64CB
:1015DC00756365204D65617420202043616E476FF3
:1015EC006F647320004D696C6B202020204F4A20C3
:1015FC0020202020202020536F64612020202020D8
:10160C002020202020004170706C657320204261E6
:10161C006E616E61732020204772617065732020AB
:10162C00202020202020005269627320202020538B
:10163C006872696D70202020204275726765722077
:10164C004D6561742020200050656173202020209E
:10165C00436F726E202020202020526176696F6CBF
:10166C006973202020202020003129426F74746C73
:10167C006520322951756172742020332947616CC1
:10168C006C6F6E2020202020200031294C6974655D
:10169C0072203229313263616E7320203329362057
:1016AC00622D7061636B2020202000312932206371
:1016BC006E74202032293420636E74202033293636
:1016CC0020636F756E742020202020003129322079
:1016DC00626E64202032293420626E64202033290B
:1016EC00362062756E646C652020202000312953F1
:1016FC004D2062672032294D444D206267202033F3
:10170C00294C52472062616720202020200031297B
:10171C00534D20706B2032294D444D20706B20208E
:10172C0033294C5247207061636B6167652000312F
:10173C0029534D20636E2032294D444D20636E2079
:10174C002033294C52472063616E2020202020003A
:10175C005965733F20202020204E6F3F20202020F1
:10176C002020414444204D4F524520202020005E33
:10177C005E20546F74616C205061796D656E7400DD
:10178C00436F6E742E3F20205920206F7220204E04
:10179C00003129426F74746C650032295175617285
:1017AC007400332947616C6C6F6E0031294C69747D
:1017BC00657200322931322063616E730033293631
:1017CC0020622D7061636B0031293220636E7400CE
:1017DC0032293420636E740033293620636F756EA2
:1017EC00740031293220626E640032293420626E1A
:1017FC0064003329362062756E646C6500312953A0
:10180C004D2062670032294D444D20626700332918
:10181C004C524720626167003129534D20706B0098
:10182C0032294D444D20706B0033294C52472070A7
:10183C0061636B616765003129534D20636E003223
:10184C00294D444D20636E0033294C52472063616F
:10185C006E004D696C6B004F4A00536F6461004120
:10186C0070706C65730042616E616E6173004772DB
:10187C0061706573005269627300536872696D70B0
:10188C0000427572676572204D6561740050656128
:10189C007300436F726E00526176696F6C697300EE
:0818AC00422D4D65617400003E
:00000001FF
