:100000000C9446000C945D000C945D000C945D0013
:100010000C945D000C945D000C945D000C945D00EC
:100020000C945D000C945D000C945D000C945D00DC
:100030000C945D000C945D000C945D000C945D00CC
:100040000C945D000C945D000C945D000C945D00BC
:100050000C945D000C945D000C945D000C945D00AC
:100060000C945D000C945D000C945D000C945D009C
:100070000C945D000C945D000C945D000C945D008C
:100080000C945D000C945D000C945D0011241FBE67
:10009000CFEFD0E4DEBFCDBF11E0A0E0B1E0E6E9F4
:1000A000F2E000E00BBF02C007900D92AE30B10746
:1000B000D9F70E9476000C9449010C940000CF936C
:1000C000C82F8A3019F48DE00E945F008091C00033
:1000D00085FFFCCFC093C60080E090E0CF910895EB
:1000E000EAE7F0E08081806E8083089511B88FEF99
:1000F00082B984B915B88AB91BB80E947000C09142
:100100007800D0917900C934D10518F48FEF85B902
:10011000F6CFBE0180E090E00E94E8006B017C0118
:100120002AE939E941EB52E40E94E30018161CF079
:100130008FE785B9E4CF24E333E343ED52E4C7010D
:10014000B6010E94E30018161CF08FE385B9D7CFE3
:100150002CEC3CEC44EF52E4C701B6010E94E300F2
:1001600018161CF08FE185B9CACF24E333E34BE0C6
:1001700053E4C701B6010E94E30018161CF08FE09B
:1001800085B9BDCF20E030E04CE153E4C701B601B2
:100190000E94E30018161CF087E085B9B0CF2CEC64
:1001A0003CEC4CE253E4C701B6010E94E300181690
:1001B0001CF083E085B9A3CFC13CD10508F09FCFE7
:1001C00081E085B99CCF0E94250108F481E0089563
:1001D000E89409C097FB3EF49095809570956195E1
:1001E0007F4F8F4F9F4F9923A9F0F92F96E9BB2797
:1001F0009395F695879577956795B795F111F8CF13
:10020000FAF4BB0F11F460FF1BC06F5F7F4F8F4F7D
:100210009F4F16C0882311F096E911C0772321F073
:100220009EE8872F762F05C0662371F096E8862F0B
:1002300070E060E02AF09A95660F771F881FDAF762
:10024000880F9695879597F90895990F0008550F8F
:10025000AA0BE0E8FEEF16161706E807F907C0F04C
:1002600012161306E407F50798F0621B730B840B54
:10027000950B39F40A2661F0232B242B252B21F42E
:1002800008950A2609F4A140A6958FEF811D811DCE
:060290000895F894FFCF71
:0E02960000000002000000005F0000000000F9
:00000001FF
