:100000000C9455000C9474000C9474000C947400BF
:100010000C9474000C9474000C9474000C94740090
:100020000C9474000C9474000C9474000C94740080
:100030000C9474000C9417050C9474000C947400C8
:100040000C9474000C9474000C9474000C94740060
:100050000C9474000C9474000C9474000C94740050
:100060000C9474000C9474000C9474000C94740040
:100070000C9474000C9474000C9474000C94740030
:100080000C9474000C9474000C9474007F03860329
:100090000C04220438044E0464047A04A104BC0451
:1000A000C504CE04D704E004E60411241FBECFEF3C
:1000B000D0E4DEBFCDBF11E0A0E0B1E0E8E1FEE0BA
:1000C00000E00BBF02C007900D92A63DB107D9F723
:1000D00022E0A6EDB1E001C01D92A731B207E1F721
:1000E0000E9477050C940A070C94000040E050E051
:1000F0000CC000002F5F3F4F02C020E030E02730EF
:1001000063E03607B4F34F5F5F4F48175907ACF30E
:1001100008959BB19F7B9BB988B98BB180688BB9DF
:1001200000008BB18F778BB982E090E00E9476005F
:10013000089581E00E9489000895813120F481585A
:100140000E948900089581550E948900089584E6DF
:1001500090E00E94760088E30E94890086E00E9479
:1001600089008FE00E94890081E00E9489008AE076
:1001700090E00E94760008959BB190649BB988B985
:100180008BB180688BB900008BB18F778BB981E020
:1001900090E00E9476000895EF92FF920F931F93D4
:1001A000CF93DF93182FEB010E9499000EC001E05E
:1001B000010F812F0E949D007E018FEFE81AF80A3F
:1001C00088810E94BC00102FE70188818111EFCF48
:1001D000DF91CF911F910F91FF90EF900895CF93F2
:1001E000C82F8A3019F48DE00E94EF008091C00082
:1001F00085FFFCCFC093C60080E090E0CF910895CA
:1002000080911102909112028230910509F443C04D
:1002100028F4009759F0019781F0C5C0833091050B
:1002200009F467C0049709F491C0BDC081E090E073
:100230009093120280931102BAC080B190E0809531
:1002400090958F709927019739F482E090E0909310
:10025000120280931102ABC080B190E0809590951E
:100260008F709927039739F484E090E090931202FD
:10027000809311029CC080B190E0809590958F7022
:100280009927892B09F093C081E090E090931202A6
:10029000809311028CC080B190E0809590958F7012
:1002A0009927019739F483E090E0909312028093AC
:1002B00011027DC080B190E0809590958F70992754
:1002C000039739F484E090E0909312028093110236
:1002D0006EC080B190E0809590958F709927892BA2
:1002E00009F065C081E090E09093120280931102C2
:1002F0005EC080B190E0809590958F7099270197AE
:1003000039F481E090E090931202809311024FC083
:1003100080B190E0809590958F709927039739F47C
:1003200084E090E0909312028093110240C080B16B
:1003300090E0809590958F709927892BC1F581E089
:1003400090E0909312028093110231C080B190E04E
:10035000809590958F709927059739F481E090E00A
:10036000909312028093110222C080B190E0809598
:1003700090958F709927019739F484E090E09093DD
:1003800012028093110213C080B190E08095909585
:100390008F709927892B59F481E090E09093120295
:1003A0008093110204C010921202109211028091E7
:1003B00011029091120282309105F9F018F4019720
:1003C00039F0089583309105D9F00497E1F008954C
:1003D00080B190E0809590958F709927019719F4DE
:1003E00081E085B9089580B190E0809590958F70F7
:1003F0009927892B49F415B8089582E085B90895A5
:1004000084E085B9089515B80895809115029091FA
:1004100016028130910559F018F0029779F147C022
:1004200081E090E09093160280931502089580B1C8
:1004300090E0809590958F709927019781F482E0E4
:1004400090E090931602809315020E9498066AE04D
:1004500070E00E941C068F5F8093D901089580B1DF
:1004600090E0809590958F709927892B21F581E0F8
:1004700090E09093160280931502089580B190E069
:10048000809590958F709927019781F482E090E094
:1004900090931602809315020E9498066AE070E01D
:1004A0000E941C068F5F8093D90101C080B1109219
:1004B000160210921502089580910F029091100279
:1004C0008230910599F128F4009759F0019781F055
:1004D000C6C08330910509F476C0049709F499C029
:1004E000BEC081E090E09093100280930F02BBC0E9
:1004F00080B190E0809590958F709927019759F47D
:100500008091D801813039F482E090E0909310021C
:1005100080930F02A8C08091D8018111A4C081E00E
:1005200090E09093100280930F029DC080B190E004
:10053000809590958F709927059741F080B190E054
:10054000809590958F709927892B39F481E090E000
:100550009093100280930F0286C080B190E0809546
:1005600090958F709927099759F48091D701813020
:1005700039F484E090E09093100280930F0273C0EE
:1005800080B190E0809590958F709927099759F4E4
:100590008091D701823039F483E090E0909310028B
:1005A00080930F0260C080B190E0809590958F702D
:1005B0009927019709F057C082E090E090931002CC
:1005C00080930F0250C080B190E0809590958F701D
:1005D0009927059741F080B190E0809590958F70B4
:1005E0009927892B39F481E090E090931002809351
:1005F0000F0239C080B190E0809590958F70992757
:10060000019789F583E090E09093100280930F02A8
:100610002AC080B190E0809590958F7099270597BA
:1006200041F080B190E0809590958F709927892B4B
:1006300039F481E090E09093100280930F0213C090
:1006400080B190E0809590958F709927019759F42B
:1006500084E090E09093100280930F0204C0109207
:10066000100210920F0280910F02909110028230BE
:10067000910581F018F4019739F0089583309105C0
:1006800031F1049751F108958091D801813051F5ED
:1006900015B808958091D6018F5F8093D601853675
:1006A00018F081E08093D6018091D601982F917047
:1006B00080FF06C081E08093D70180E185B908956D
:1006C000911110C082E08093D70115B8089568E1B8
:1006D00071E081E00E94CC00089569E271E081E060
:1006E0000E94CC000895E0911302F0911402E830CA
:1006F000F10508F015C1EA5BFF4F0C94300681E06C
:1007000090E090931402809313020EC180B190E0A8
:10071000809590958F709927892B41F080B190E05A
:10072000809590958F709927019739F481E090E03A
:100730009093140280931302F7C080B190E08095EB
:1007400090958F709927039759F48091D90186303D
:1007500039F482E090E09093140280931302E4C095
:1007600080B190E0809590958F709927039759F408
:100770008091D901873039F483E090E0909314029E
:1007800080931302D1C080B190E0809590958F70D6
:100790009927039759F48091D901883039F484E07E
:1007A00090E09093140280931302BEC080B190E059
:1007B000809590958F709927039759F48091D9016E
:1007C000893039F485E090E090931402809313020D
:1007D000ABC080B190E0809590958F70992703977A
:1007E00059F48091D9018A3039F486E090E09093F1
:1007F00014028093130298C080B190E08095909588
:100800008F709927039709F08FC087E090E090934D
:1008100014028093130288C080B190E08095909577
:100820008F709927059739F481E090E09093140236
:100830008093130279C082E090E090931402809339
:10084000130272C080B190E0809590958F709927C7
:10085000059739F481E090E090931402809313029D
:1008600063C083E090E090931402809313025CC015
:1008700080B190E0809590958F709927059739F415
:1008800081E090E090931402809313024DC084E0C5
:1008900090E0909314028093130246C080B190E0E0
:1008A000809590958F709927059739F481E090E0B5
:1008B000909314028093130237C085E090E09093E8
:1008C00014028093130230C080B190E0809590951F
:1008D0008F709927059739F481E090E09093140286
:1008E0008093130221C086E090E0909314028093DD
:1008F00013021AC080B190E0809590958F7099276F
:10090000059739F481E090E09093140280931302EC
:100910000BC087E090E0909314028093130204C010
:100920001092140210921302E0911302F09114023B
:100930003197E730F10508F04EC0E25BFF4F0C94B1
:10094000300680B190E0809590958F70992701973F
:1009500031F469E371E081E00E94CC000AC080B10B
:1009600090E0809590958F709927892B11F40E94C3
:1009700099001092D801089560E571E081E00E942D
:10098000CC0081E08093D801089566E671E081E0B3
:100990000E94CC0081E08093D80108956CE771E05B
:1009A00081E00E94CC0081E08093D801089563E942
:1009B00071E081E00E94CC0081E08093D80108952D
:1009C0006BEA71E081E00E94CC0008956CEB71E06D
:1009D00081E00E94CC0008958BE0809381008DE738
:1009E00090E0909389008093880082E080936F006C
:1009F0001092850010928400809100019091010175
:100A0000A0910201B09103018093DA019093DB0180
:100A1000A093DC01B093DD018FB780688FBF08958C
:100A200010928100089581E08093DE0108951F9265
:100A30000F920FB60F9211240BB60F922F933F9384
:100A40004F935F936F937F938F939F93AF93BF93D6
:100A5000EF93FF938091DA019091DB01A091DC018B
:100A6000B091DD010197A109B1098093DA0190935A
:100A7000DB01A093DC01B093DD01892B8A2B8B2B4A
:100A800091F40E9413058091000190910101A091C1
:100A90000201B09103018093DA019093DB01A093EE
:100AA000DC01B093DD01FF91EF91BF91AF919F9178
:100AB0008F917F916F915F914F913F912F910F9007
:100AC0000BBE0F900FBE0F901F9018956093000102
:100AD0007093010180930201909303016093DA0106
:100AE0007093DB018093DC019093DD01089511B8D0
:100AF0008FEF82B984B915B887B918B88AB91BB80D
:100B0000EFEDF1E01182108282E390E0A0E0B0E02E
:100B100082839383A483B58386839783A087B187D9
:100B200025E032E0338722871586148686879787EB
:100B3000A08BB18B828B938BA48BB58B20E031E0A3
:100B4000378B268B118E108E828F938FA48FB58F4B
:100B5000868F978FA0A3B1A383E793E093A382A38B
:100B600015A214A286E990E0A0E0B0E086A397A3C6
:100B7000A0A7B1A782A793A7A4A7B5A78CE592E0E9
:100B800097A786A76AE070E080E090E00E94660583
:100B90000E94EC040E94A70081E00E949D0010E0EA
:100BA00041C0C12FD0E0FE01EE0FFF1FEC0FFD1F73
:100BB000EE0FFF1FEE0FFF1FE152FE4F46815781E0
:100BC0006085718582819381A481B5814817590719
:100BD0006A077B0779F47F01DF010284F385E02D4A
:100BE0008D919C910995F7019183808316821782DC
:100BF00010861186CE01880F991FFC01EC0FFD1F96
:100C0000EE0FFF1FEE0FFF1FE152FE4F868197810F
:100C1000A085B1850196A11DB11D86839783A0870C
:100C2000B1871F5F143008F4BCCF8091DE018823A8
:100C3000E1F31092DE01B3CF97FB072E16F4009478
:100C400007D077FD09D00E94390607FC05D03EF495
:100C5000909581959F4F0895709561957F4F089568
:100C6000EE0FFF1F0024001C0BBE0790F691E02D35
:100C70000994AA1BBB1B51E107C0AA1FBB1FA617E3
:100C8000B70710F0A61BB70B881F991F5A95A9F735
:100C900080959095BC01CD0108958F929F92AF925F
:100CA000BF92CF92DF92EF92FF92CF93DF93EC014E
:100CB000688179818A819B81611571058105910522
:100CC00021F464E279ED8BE597E02DE133EF41E02B
:100CD00050E00E94A70649015A019B01AC01A7EA16
:100CE000B1E40E94C6066B017C01ACEEB4EFA50135
:100CF00094010E94D406DC01CB018C0D9D1DAE1D1C
:100D0000BF1DB7FF03C00197A109B048888399832D
:100D1000AA83BB839F77DF91CF91FF90EF90DF9005
:100D2000CF90BF90AF909F908F9008950C944D06F8
:100D300082E191E00C944D06A0E0B0E080931201B6
:100D400090931301A0931401B09315010895052EFB
:100D500097FB1EF400940E94BE0657FD07D00E9428
:100D6000D90607FC03D04EF40C94BE06509540956E
:100D7000309521953F4F4F4F5F4F08959095809547
:100D8000709561957F4F8F4F9F4F08950E94FB068E
:100D9000A59F900DB49F900DA49F800D911D1124CF
:100DA0000895B7FF0C94C6060E94C606821B930BDB
:100DB0000895A1E21A2EAA1BBB1BFD010DC0AA1F9C
:100DC000BB1FEE1FFF1FA217B307E407F50720F0B4
:100DD000A21BB30BE40BF50B661F771F881F991F2F
:100DE0001A9469F760957095809590959B01AC0178
:100DF000BD01CF010895A29FB001B39FC001A39F81
:100E0000700D811D1124911DB29F700D811D112443
:080E1000911D0895F894FFCF35
:100E1800010000000000000200000000EF000000D8
:100E280000000100000004004361707475726520C1
:100E380053756363657373210043617074757265DC
:100E4800204661696C6564210050726573732020C7
:100E58004C6F636B2D4F6E2020427574746F6E005B
:100E6800466F756E64204C617267656D6F75746846
:100E7800426173732100466F756E64204C6F6E6714
:100E88006E65636B2020446163652100466F756E53
:100E98006420205261696E626F77202054726F75EA
:100EA800742100466F756E642041746C616E7469BC
:100EB80063202053616C6D6F6E21004577212053AC
:100EC80074696E6B7920426F6F742100536F727270
:100ED8007921204D6973736564202020746865202A
:060EE80046697368210059
:00000001FF
