:100000000C9446000C9465000C9465000C946500FB
:100010000C9465000C9465000C9465000C946500CC
:100020000C9465000C9465000C9465000C946500BC
:100030000C9465000C94A3000C9465000C9465006E
:100040000C9465000C9465000C9465000C9465009C
:100050000C9465000C9465000C9465000C9465008C
:100060000C9465000C9465000C9465000C9465007C
:100070000C9465000C9465000C9465000C9465006C
:100080000C9465000C9465000C94650011241FBE4F
:10009000CFEFD0E4DEBFCDBF11E0A0E0B1E0E2EBF6
:1000A000F5E000E00BBF02C007900D92A431B1074C
:1000B000D9F721E0A4E1B1E001C01D92AD32B20751
:1000C000E1F70E94A5020C94D7020C940000CF9394
:1000D000C82F8A3019F48DE00E9467008091C0001B
:1000E00085FFFCCFC093C60080E090E0CF910895DB
:1000F0008BE0809381008DE790E09093890080935E
:10010000880082E080936F00109285001092840036
:100110008091020190910301A0910401B091050129
:100120008093140190931501A0931601B0931701C9
:100130008FB780688FBF089510928100089581E085
:100140008093180108951F920F920FB60F921124F9
:100150000BB60F922F933F934F935F936F937F93C1
:100160008F939F93AF93BF93EF93FF93809114016D
:1001700090911501A0911601B09117010197A10965
:10018000B1098093140190931501A0931601B093C7
:100190001701892B8A2B8B2B91F40E949F00809151
:1001A000020190910301A0910401B0910501809397
:1001B000140190931501A0931601B0931701FF91BC
:1001C000EF91BF91AF919F918F917F916F915F91CF
:1001D0004F913F912F910F900BBE0F900FBE0F903C
:1001E0001F9018956093020170930301809304019E
:1001F000909305016093140170931501809316018B
:1002000090931701089580912401909125018130E8
:10021000910559F018F0029739F145C081E090E05E
:10022000909325018093240142C08091010190E0C8
:1002300020911D0130911E01821793073CF081E04F
:1002400090E0909325018093240131C08217930799
:1002500074F582E090E09093250180932401109240
:100260001E0110921D0123C08091000190E0209199
:100270001D0130911E01821793073CF082E090E04F
:10028000909325018093240112C0821793077CF478
:1002900081E090E0909325018093240110921E014B
:1002A00010921D0104C0109225011092240180912A
:1002B0002401909125018130910539F018F00297C1
:1002C000B1F0089510922101089581E080932101F9
:1002D0008093010189E08093000180911D0190913C
:1002E0001E01019690931E0180931D0108951092A6
:1002F000210181E08093010189E0809300018091D8
:100300001D0190911E01019690931E0180931D0185
:10031000089580912801909129018130910559F02B
:1003200018F00297B1F13EC081E090E0909329016E
:10033000809328013BC080B190E080959095887FA4
:100340009927892B69F480911D0190911E010A97CC
:100350003CF481E090E0909329018093280126C02D
:1003600080B190E080959095887F9927892BF1F452
:1003700080911D0190911E010A97C4F082E090E0E7
:10038000909329018093280110921E0110921D0163
:100390000DC080B180B181E090E0909329018093FD
:1003A000280104C01092290110922801809128018F
:1003B000909129018130910519F0029771F008950B
:1003C00082E080932C0180911D0190911E01019685
:1003D00090931E0180931D01089510922C010895A1
:1003E00080912601909127018130910561F020F0E4
:1003F000029709F443C049C081E090E0909327013F
:100400008093260146C080B190E0809590958770DA
:10041000992790931E0180931D0121E030E03093D5
:1004200027012093260120B130E0209530952770D8
:1004300033274091190150911A014F5F5F4F2417E4
:10044000350729F4019690931C0180931B0180913C
:100450001B0190911C01089734F082E090E090938A
:1004600027018093260180B190E080959095877058
:10047000992790931A01809319010BC081E090E0B5
:10048000909327018093260104C0109227011092B7
:10049000260180912601909127018130910519F064
:1004A000029721F0089510922301089584E080932B
:1004B0002301089580912A0190912B01009719F052
:1004C000019761F007C081E090E090932B01809349
:1004D0002A0104C010922B0110922A0180912A0156
:1004E00090912B01019759F480912C01823021F4D5
:1004F00080B18095887F01C080E0809322010895BB
:1005000080911F0190912001009719F0019751F0FF
:1005100005C01092200110921F0104C0109220010A
:1005200010921F0180911F0190912001019761F4A9
:100530009091230180912201892B90912C01892B8C
:1005400090912101892B85B9089511B88FEF82B957
:1005500084B915B864E670E080E090E00E94F20093
:100560000E94780010922501109224011092290116
:100570001092280110922B0110922A01109227014B
:10058000109226011092200110921F010E94030177
:100590000E9489010E945A020E94F0010E9480027A
:1005A000809118018823E1F310921801EFCFF8949D
:0205B000FFCF7B
:1005B20009010100000000000002000000006700C5
:0405C2000000000035
:00000001FF
